:020000040800F2
:1000000000040020B9010008BB010008BB01000882
:10001000BB010008BB010008BB010008BB010008D0
:10002000BB010008BB010008BB01000839EE000855
:10003000BB010008BB010008BB010008C3020108A6
:10004000BB010008BB010008BB010008BB010008A0
:10005000BB010008BB010008B5FF0008DDFF000878
:10006000050001082D00010855000108BB0100082A
:10007000BB010008BB010008F5090108BB0100082D
:100080007D000108BB010008BB010008BB0100089E
:10009000BB010008BB010008BB010008BB01000850
:1000A000BB010008BB010008E1050108F5050108D6
:1000B000BB010008BB010008CD030108BB0100081B
:1000C000E1030108E1000108BB010008BB010008D1
:1000D000BB010008BB010008BB010008BB01000810
:1000E00072B6264880F30888254880F30988254899
:1000F00025490860022080F31488BFF36F8F0EF04B
:100100006FFB0DF0C7FE4FF0553020491B4A91425E
:100110003CBF41F8040BFAE71D49194A91423CBF24
:1001200041F8040BFAE71B491B4A1C4B9A423EBF9D
:1001300051F8040B42F8040BF8E700201849194A5B
:1001400091423CBF41F8040BFAE70EF04DFB0EF074
:1001500048FB154C154DAC4203DA54F8041B884794
:10016000F9E707F0D5FE124C124DAC4203DA54F811
:10017000041B8847F9E70EF035BB0000000400209F
:10018000000C00200000000808ED00E00000002046
:1001900000040020541C0108000C00200C14002056
:1001A00010140020A44F0020E0000008E000000828
:1001B000E0000008E000000892E700F000F8FEE729
:1001C0002DE9F04FC1F80CD0C3689D46BDE8F08F13
:1001D000002383F311882846A04700200EF032FD4B
:1001E000FEE70EF063FC00DFFEE7000053B94AB9FA
:1001F000002908BF00281CBF4FF0FF314FF0FF302F
:1002000000F08AB9ADF1080C6DE904CE00F01AF8DF
:10021000DDF804E0DDE9022304B07047430803F091
:100220005533C01A830803F0333300F033301844D9
:1002300000EB101000F00F3000EB002000EB00404E
:10024000000E70472DE9F047089E0D46044688468B
:10025000002B4DD18A42944668D9B2FA82F252B14B
:1002600001FA02F3C2F1200120FA01F10CFA02FCBA
:1002700041EA030894404FEA1C41B8FBF1F71FFA2A
:100280008CFE01FB178807FB0EF0230C43EA0843A2
:1002900098420AD91CEB030307F1FF3580F01E8159
:1002A000984240F21B81023F63441B1AB3FBF1F0FA
:1002B00001FB103300FB0EFEA4B244EA0344A64542
:1002C0000AD91CEB040400F1FF3380F00981A64534
:1002D00040F20681644402380021A4EB0E0440EA97
:1002E00007401EB10023D440C6E90043BDE8F087B3
:1002F0008B4208D9002E00F0EE800021C6E90005EF
:100300000846BDE8F087B3FA83F100294AD1AB4231
:1003100002D3824200F2FC80841A65EB03030120C1
:100320009846002EE2D0C6E90048DFE702B9FFDEBA
:10033000B2FA82F2002A40F09180A1EB0C00012178
:100340004FEA1C471FFA8CFEB0FBF7F307FB1300C4
:10035000250C45EA00450EFB03F0A84208D91CEB2A
:10036000050503F1FF3802D2A84200F2CE804346D1
:100370002D1AB5FBF7F007FB10550EFB00FEA4B2DB
:1003800044EA0544A64508D91CEB040400F1FF35F6
:1003900002D2A64500F2B6802846A4EB0E0440EA3D
:1003A00003409EE7C1F120078B4022FA07FC4CEA8C
:1003B000030C25FA07FA4FEA1C49BAFBF9F820FAB0
:1003C00007F309FB18AA8D401FFA8CFE1D4300FAA3
:1003D00001F308FB0EF02C0C44EA0A44A04202FA96
:1003E00001F20BD91CEB040408F1FF3A80F088807D
:1003F000A04240F28580A8F102086444241AB4FBAC
:10040000F9F009FB104400FB0EFEADB245EA0444CE
:10041000A64508D91CEB040400F1FF356CD2A645B3
:100420006AD90238644440EA0840A0FB0295A4EB74
:100430000E04AC42C846AE4656D353D0002E69D007
:10044000B3EB080264EB0E0422FA01F304FA07F797
:100450001F43CC40C6E90074002147E70CFA02FCB8
:10046000C2F1200125FA01F34FEA1C4720FA01F1FD
:1004700095400D43B3FBF7F107FB11331FFA8CFED8
:10048000280C40EA034001FB0EF3834204FA02F415
:1004900008D91CEB000001F1FF382FD283422DD97F
:1004A00002396044C01AB0FBF7F307FB1300ADB28A
:1004B00045EA004503FB0EF0A84208D91CEB0505F0
:1004C00003F1FF3816D2A84214D9023B6544281A1A
:1004D00043EA014138E73146304607E72F46E4E674
:1004E0001846F9E64B45A9D2B9EB020865EB0C0EAC
:1004F0000138A3E74346EAE7284694E74146D1E7B7
:10050000D0467BE76444023847E7023B65442FE767
:10051000084606E73146E9E6704700BF062008B501
:1005200000F08AFA01200FF0BBFB00BF032A10B5D0
:1005300016D940EA010C1CF0030F04460B4622D1E9
:1005400019462046D1F800E0D0F800C00433F44545
:1005500004F1040417D1043A032A20461946EFD8BF
:10056000541EA2B100F1FF3C013901E0C3180CD0C8
:100570001CF801EF11F8012FA4EB0C039645F5D000
:10058000AEEB020010BD541EECE7184610BD10463D
:1005900010BD00BF844641EA000313F0030349D1B4
:1005A000403A23D30B6803604B6843608B688360D9
:1005B000CB68C3600B6903614B6943618B698361DD
:1005C000CB69C3610B6A03624B6A43628B6A8362C5
:1005D000CB6AC3620B6B03634B6B43638B6B8363AD
:1005E000CB6BC36340304031403ADBD230320BD367
:1005F0000B6803604B6843608B688360CB68C360A3
:1006000010301031103AF3D20C3205D351F8043BBC
:1006100040F8043B043AF9D2043208D0D2071CBF98
:1006200011F8013B00F8013B01D30B8803806046C1
:10063000704700BF082A13D38B07B1D010F0030313
:10064000AED0C3F10403D21ADB071CBF11F8013B83
:1006500000F8013BA4D331F8023B20F8023B9FE7AE
:10066000043AD9D3013A11F8013B00F8013BF9D221
:100670000B7803704B7843708B78837060467047BB
:1006800088420DD98B1883420AD900EB020CBAB10B
:10069000624613F801CD994202F801CDF9D17047B5
:1006A0000F2A0ED8034602F1FF3C4AB10CF1010CAF
:1006B000013B8C4411F8012B614503F8012FF9D15E
:1006C000704740EA01039B074FD1A2F1100370B5B8
:1006D00001F1200C23F00F0501F1100E00F11004C0
:1006E000AC441B095EF8105C0EF1100E44F8105C6F
:1006F0005EF81C5C103444F81C5C5EF8185C44F82E
:10070000185C5EF8145CE64544F8145CEAD10133E9
:1007100012F00C0F01EB031102F00F0400EB0313B6
:1007200027D08E46043C24F003064FEA940C1E4466
:100730001C1F5EF8045B44F8045FB442F9D10CF16D
:10074000010402F0030203EB840301EB840102F1D4
:10075000FF3C4AB10CF1010C013B8C4411F8012B18
:10076000614503F8012FF9D170BD034602F1FF3C4A
:100770009CE72246EBE700BF830730B548D0541E04
:10078000002A3FD00346CAB201E0013C3AD303F845
:10079000012B9D07F9D1032C2DD9CDB245EA0525B2
:1007A0000F2C45EA054536D9A4F1100222F00F0CB2
:1007B00003F1200EE6444FEA121C03F1100242E955
:1007C000045542E9025510327245F8D10CF101028C
:1007D00014F00C0F03EB021204F00F0C13D0ACF169
:1007E000040323F003030433134442F8045B9342ED
:1007F000FBD10CF003042CB1CAB21C4403F8012B4A
:100800009C42FBD130BD64461346002CF4D1F9E77D
:1008100003461446BFE71A46A446E0E738B5124B34
:1008200004461D68AA6B1AB10023C2E9044338BD0F
:10083000182000F02DFA0246A86378B100210B239E
:1008400001209381C2E90401084B0949094DC2E91D
:10085000011300231560C2E9044338BD4221064B51
:10086000064800F0CDF900BF000C0020ECDE0500CA
:1008700034126DE60E33CDAB841B01089C1B0108BE
:1008800038B5194B1C68A26B8AB1136917495469B2
:1008900003FB01F1164800FB0411A3FB00300133F8
:1008A00041EB0001C2E9043121F0004038BD1820BD
:1008B00000F0EEF90246A06388B1012400250B2365
:1008C0000A480C49C2E90445116001460A4D0B4C27
:1008D00093810B4BC2E90154C2E9043138BD4E216A
:1008E000084B094800F08CF9000C00202DF45158F9
:1008F0002D7F954C0E33CDAB34126DE6ECDE05004A
:100900002E7F954C841B01089C1B010838B5446C54
:100910000CB1002038BD8021054600F02FFA0246B8
:10092000686430B1031F7C3243F8044F9342FBD11B
:10093000EFE74FF0FF3038BD1F29F8B5054608D85E
:10094000466C0C4617464EB156F8240046F8247003
:10095000F8BD16234FF0FF302B60F8BD802100F06A
:100960000DFA0646686440B10021031F00F17C05C2
:1009700043F8041F9D42FBD1E6E74FF0FF30F8BD7E
:100980001F2938B5054620D8426C0C466AB152F88A
:10099000213053B1012B16D0591C10D00025204610
:1009A00042F824509847284638BD284600F0F8F809
:1009B000224601462846BDE8384000F0DDB816233F
:1009C00001202B6038BD002038BD16234FF0FF30CA
:1009D0002B6038BD1F292BD8426C38B50C46054614
:1009E00082B152F8243002EB84024BB1591C1AD068
:1009F000012B16D00025204615609847284638BDA3
:100A0000012038BD802100F0B9F90246686460B168
:100A10000020131F02F17C0143F8040F9942FBD11F
:100A2000DFE7032038BD022038BD4FF0FF3038BD6E
:100A30004FF0FF30704700BF38B5144B1F281D68BA
:100A40001FD86A6C044662B152F820304BB1012BBA
:100A500015D0591C0FD0002542F820509847284641
:100A600038BD284600F09CF8224601462846BDE8DD
:100A7000384000F081B8162301202B6038BD0020DB
:100A800038BD16234FF0FF302B6038BD000C00201E
:100A9000124B1F2870B51E6808D80D46716C0446AD
:100AA00049B151F8240041F8245070BD16234FF08D
:100AB000FF30336070BD8021304600F05FF90146A1
:100AC000706440B10022031F00F17C0C43F8042F36
:100AD0006345FBD1E5E74FF0FF3070BD000C00200F
:100AE00038B50B4B1D686C6C0CB1002038BD8021F3
:100AF000284600F043F9686438B1031F00F17C0216
:100B000043F8044F9342FBD1EFE74FF0FF3038BD7D
:100B1000000C002038B5174B1F281D6827D86A6CB9
:100B2000044682B152F8243002EB84024BB1591CC6
:100B30001BD0012B17D0002520461560984728466A
:100B400038BD012038BD8021284600F017F9024643
:100B5000686460B10020131F02F17C0143F8040FA8
:100B60008B42FBD1DEE7032038BD022038BD4FF0B9
:100B7000FF3038BD000C002070B50026074D04463C
:100B8000084611462E600FF093F8431C00D070BD4C
:100B90002B68002BFBD0236070BD00BF1814002011
:100BA0000FF08EB820F0030110F00300C0F1000038
:100BB00051F8043B00F1040C4FEACC0C6FF000023A
:100BC0001CBF22FA0CF213434FF0010C4CEA0C2C20
:100BD0004CEA0C4CA3EB0C0222EA030212EACC1200
:100BE00004BF51F8043B0430F4D0C2F1000102EA22
:100BF0000102B2FA82F2C2F11F0200EBD20070478A
:100C0000144600B51A460A4B0D461B6885B0DE68CF
:100C100003464CB1074901913046074902940095BB
:100C200000F022F8FFF77AFC04490C46F3E700BF16
:100C3000000C0020D01B0108E01B0108DC1B010890
:100C400008B513460022FFF7DBFF00BF0CB400B568
:100C500083B004AB53F8042B019300F025F903B0E3
:100C60005DF804EB02B070470EB400B5074A82B0DD
:100C700003AB0146106853F8042B019300F014F9FC
:100C800002B05DF804EB03B0704700BF000C002019
:100C9000024B0146186800F071B800BF000C00203C
:100CA000024B0146186800F003B800BF000C00209A
:100CB000002952D038B551F8043C0C1F002BB8BFA6
:100CC000E418054601F0AEF92B4A1368002B45D015
:100CD000A3420CD921686018834228D0636028465B
:100CE0001460BDE8384001F09FB9A3420FD81A46FE
:100CF0005B68002BF9D11168501884421DD034D3A1
:100D0000636054602846BDE8384001F08DB9116831
:100D10005018A04215D028D8216860188342EFD11E
:100D200018685B680144C4E900135460EAE7186876
:100D30005B680144C4E90013D1E7236819441160DA
:100D4000E0E720680144501883421160DAD1D3E90A
:100D500000030144C2E90013D4E7704728466360EA
:100D60001460BDE8384001F05FB90C2328462B60C1
:100D7000BDE8384001F058B910140020F8B5CD1C7A
:100D800025F0030508350C2D38BF0C25002D06462F
:100D900023DBA94221D8264F01F044F93A6822B357
:100DA000144603E063682246FBB11C4623685B1BC4
:100DB000F8D40B2B15D8636894420CBF3B6053608A
:100DC000304601F031F904F10B00231D20F007003B
:100DD000C21A01D01B1AA350F8BD0C2300203360A7
:100DE000F8BD23601C442560EAE77968D1B1294643
:100DF00030460EF047FF431C01460CD0C41C24F0C3
:100E00000304A04205D03046611A0EF03BFF0130CA
:100E100001D02560D4E70C233046336001F004F99B
:100E20000020F8BD30460EF02DFF7860DFE700BFF0
:100E3000101400209368013B002B936005DAD2F870
:100E400018C0634507DB0A2905D01368581C1060D9
:100E500008461970704700F069BB00BF9BB1F8B538
:100E6000134406460F46541E5D1E01E0AC4208D0F6
:100E70003A46304614F8011FFFF7DCFF431CF5D15A
:100E8000F8BD0020F8BD0020704700BF936810B582
:100E9000144613B91846536010BD00F031FE00230C
:100EA000C4E9013310BD00BF2DE9F04F0E46924654
:100EB0001C4607469FB018B18369002B00F0A8803C
:100EC000954B9E4200F0AA80944B9E4200F0B58064
:100ED000934B9E4208BFFE68B389180740F1A38078
:100EE0003369002B00F09F80002320220B933023D6
:100EF0009AF80010059401258A4C8DF831208DF860
:100F0000323000297DD0D1460B4604E019F8013F6C
:100F1000002B00F09480252BF8D1B9EB0A0B40F0A0
:100F2000918099F80030002B6BD000234FF0FF32F6
:100F300009F10109CDE90723069309938DF85B3088
:100F40001C9304E0001B05FA00F018430690CA4603
:100F50000522204619F8011B01F01CF8069B002809
:100F6000F0D1D90644BF20228DF85B201A0748BF74
:100F70002B229AF8001048BF8DF85B202A2972D1E5
:100F8000059A1168043200290592C0F2A0800991E7
:100F90009AF801100AF1010A2E2976D0DFF888911B
:100FA0000322484600F0F6FF48B14022069BA0EB22
:100FB000090002FA00F003430AF1010A06931AF845
:100FC000011B062259488DF8301000F0E3FF00287D
:100FD00000F08380564B002B6CD005A9009132465F
:100FE0003846544B06A9AFF300800390039B0133AE
:100FF00007D00B9B039A9AF8001013440B93002917
:1010000081D1B3895B0615D40B981FB0BDE8F08F72
:1010100000F056FD404B9E427FF456AF7E68B38988
:1010200018073FF55DAF3146384600F0E1FA002879
:101030003FF45AAF4FF0FF30E7E7BE684CE7B9EB3B
:101040000A0BDED0D046CAF1010A03E0934538D935
:1010500018F8011F32463846FFF7ECFE01300AEB64
:101060000802F3D1CDE7A1F13002092A94D8099BF7
:101070001AF8011F03EB830302EB4303A1F13002D3
:10108000092AF5D92E29099388D19AF801102A291D
:101090002DD1059B0AF102001A680433002A05933A
:1010A000B8BF4FF0FF339AF8021007928246B8BFDC
:1010B000079373E7059B073323F007030833059372
:1010C00097E70B9A99F800305A440B922BE7494264
:1010D00043F00203099106935AE705A900913246AD
:1010E0003846144B06A900F0CBF803907EE70023A6
:1010F000A1F13002092A0AF1010A07933FF64EAF27
:101100001AF8011F03EB830302EB4303A1F1300242
:10111000092AF5D9079341E72011010800110108B8
:10112000E0100108101C0108181C01081C1C010813
:10113000000000005D0E00088C4600B58646134690
:10114000034A714610685DF804EB6246FFF7ACBED7
:10115000000C00202DE9F04791461E460A698B6875
:101160000C469A42B8BF1A46C9F8002091F843309D
:101170000546DDF8208013B10132C9F8002022684D
:1011800091065DD5D9F800300233C9F800302268E5
:1011900012F0060F11461ED1E168CB1A002BD8BF02
:1011A000114618DD002704F1190A06E0D9F80030CD
:1011B000E268A2EB030CBC450CDD0123524631462C
:1011C0002846C047013007F10107EFD14FF0FF304B
:1011D000BDE8F087216894F84330003B18BF012335
:1011E0008A060AD53021E21882F8431094F8451097
:1011F0005A1C2244023382F843103146284604F137
:101200004302C0470130E1D0236803F00603042BFA
:101210001DD0A3682269934225DD00279B1A1F4435
:1012200004F11A09002401E0BC421CDA01234A46F9
:1012300031462846C047013004F10104F4D1C5E726
:1012400012F0060F12D0003B18BF0123D5E7D9F8E2
:101250000030E1682269C91AA36821EAE177934264
:10126000DCDC0029DCDC0020BDE8F087E168D9F88F
:101270000030CB1A002BD8BF114693DCABE700BF80
:101280002DE9F04317460A7E85B00C46064698467F
:101290000C9D01F1430C002A33D0A2F15803D9B2BE
:1012A000202967D8202B65D8DFE813F0DD00640023
:1012B000640064006400640064006400640064000E
:1012C0006400A3006E0064006400640064006E00AB
:1012D000640064006400640021007F00BF006400BB
:1012E0006400AE0064007F0064006400E4002368D2
:1012F0001A0640F102812B686269191D29601B687A
:101300001A600023E14623613B4621463046CDF872
:10131000008003AAFFF71EFF013020D04A4639465D
:1013200030462369C047013019D02368E0689B0725
:10133000039919D5431A002B16DD002504F119096C
:1013400004E0E0680399431AAB420DDD01234A46ED
:1013500039463046C047013005F10105F1D14FF063
:10136000FF3005B0BDE8F0838842B8BF084605B03D
:10137000BDE8F083012384F8422004F1420923618F
:10138000002384F84330BFE72368190602D45A06C5
:1013900000F1BF8029680A68043129601146002ADB
:1013A0006ADB0A25DFF87CE110E02368180640F1CB
:1013B0009A802B68191D296019686F2A0CBF0825AF
:1013C0000A25DFF860E1002384F843306268002AD0
:1013D000A2607DDB236823F004032360002959D138
:1013E000002A77D1E146082D63D0ACEB09032361D5
:1013F0008AE701222B6804F14209196804332B6043
:1014000084F842102261BBE72B6800211A1D2A6074
:10141000D3F800906268484600F0BCFD00287FD0F9
:10142000A0EB090060602061AAE7236843F0200375
:1014300023607822DFF8F0E084F845202A68111D47
:101440002960190642D45D0640D51188D80744BFEB
:1014500043F020032360002943D12368102523F0A3
:1014600020032360AFE75823DFF8B8E084F8453065
:101470002368E3E72368DCE72D2284F843206268D1
:101480004942002AA26002DB23F0040323600A25FC
:10149000DFF890E0E146B1FBF5F30A4605FB1310D7
:1014A00019461EF80030AA4209F8013DF3D2082D72
:1014B0009BD12368D90798D5626823699A4294DC46
:1014C000302309F1FF3989F800308EE71168BDE754
:1014D0000029DFD19EF8003004F1420984F842303F
:1014E00081E710256FE713F0400F2B6803F104012B
:1014F00029600CBF196819885FE713F0400F2B684B
:10150000626903F1040129601B6814BF1A801A6024
:10151000F7E62A68B2F9001004322A600A463EE76C
:10152000606880E7241C0108381C0108F8B50646ED
:101530000D46144608B1836943B3254B9C422AD01B
:10154000244B9C4229D0244B9C4208BFF468A269DA
:10155000A389A2601A0722D5236903B322686169AF
:10156000D31AEDB299422F4629DD0133A168013922
:10157000A160511C2160157062699A4216D0A3893E
:10158000DB0701D50A2D11D03846F8BD00F098FAD6
:101590000F4B9C42D4D17468D9E7B468D7E7214691
:1015A000304600F025F838B92369D7E721463046A0
:1015B00000F024F90028E7D04FF0FF37E4E7214698
:1015C000304600F01BF90028F6D101232268CDE750
:1015D0002011010800110108E010010803460A4625
:1015E000024908681946FFF7A1BF00BF000C0020A0
:1015F0003C4B70B51D6806460C460DB1AB69E3B1B6
:10160000394B9C421FD0394B9C424DD0384B9C42A9
:1016100008BFEC68B4F90C3018079AB219D52169E3
:1016200011B312F001002FD000256069A56040427F
:10163000A06100292ED0002070BD284600F040FA9D
:10164000294B9C42DFD16C68B4F90C3018079AB270
:10165000E5D4D1063ED5520728D4216943F00803CA
:10166000A3819AB20029DCD102F42070B0F5007F8A
:10167000D7D02146304600F0FFFBB4F90C30216989
:101680009AB212F00100CFD1950758BF6069A060EF
:101690000029D0D1120658BF0846CDD543F04003EB
:1016A0004FF0FF30A38170BDAC68B3E7616B51B1FF
:1016B00004F14402914204D03046FFF7F9FAB4F93C
:1016C0000C30002262630022216923F02403C4E964
:1016D0000012C3E7092243F0400332604FF0FF30AD
:1016E000A38170BD000C0020201101080011010829
:1016F000E0100108F8B58B890C46190707463BD462
:101700006268002A55DDE66A002E50D000223D684E
:101710003A6013F4805250D101233846216AB04711
:10172000421C5CD0A389E66A5B0705D56368C01AD2
:10173000636B0BB1236CC01A0246216A0023384642
:10174000B047411C3BD13B68002B38D01D2B01D04A
:10175000162B4BD100232269C4E90023616B3D6045
:1017600029B304F14403994202D03846FFF7A0FAA6
:10177000002318466363F8BD2669C6B19A0718BFEF
:101780000023256808BF63692660AD1BA3600CE0D9
:101790002B463246D4F828C03846216AE047B0F1DB
:1017A000000CA5EB0C05664412DD002DF0DC0020DA
:1017B000F8BD226C002AA6DCF9E7606DB4E70022D0
:1017C000236962602360A389DB04C7D56065C5E730
:1017D000A3894FF0FF3043F04003A381F8BD3B687D
:1017E000002B9FD01D2B06D0162B04D0A38943F0CD
:1017F0004003A381F8BD00203D60F8BD38B50B69FA
:10180000BBB10C46054608B18369B3B10D4B9C4290
:1018100011D00D4B9C4213D00C4B9C4208BFEC687E
:10182000B4F90C302BB121462846BDE83840FFF70B
:1018300061BF002038BD6C68F2E700F041F9E5E7D0
:10184000AC68EDE72011010800110108E010010863
:1018500038B540B303690446E3B1174B1D680DB1B9
:10186000AB69CBB1154B9C420FD0154B9C4221D09C
:10187000144B9C4208BFEC68B4F90C3053B12146BC
:101880002846BDE83840FFF735BF6C68B4F90C3026
:10189000002BF4D1002038BD284600F011F9074B89
:1018A0009C42E2D1F1E7084B08491868BDE838408E
:1018B00000F0BEBAAC68DFE7000C00202011010880
:1018C00000110108E0100108DC100108FD170008F4
:1018D00000207047014900F0ABBA00BFFD170008B7
:1018E00000207047682270B54D1E02FB05F50E46BC
:1018F00005F17401FFF742FA044640B100210C30B3
:10190000C4E9016005F168022160FEF735FF204659
:1019100070BD00BF274B2DE9F0411E680746B36933
:1019200053B34FF004084836D6E90134013B04D5DF
:101930001EE05A1C04F168041AD0B4F90C50013BA3
:10194000002DF6D11C4B08222946C4E90055C4E9F4
:101950000253C4E904556566A56104F15C00FEF715
:101960000BFFC4E90D55C4E912552046BDE8F081CE
:1019700035682DB12E46D7E7304600F01FF8D0E786
:101980004FF4D6713846FFF7F9F9044668B105609F
:1019900029460546C0F804800C304FF4D072A06090
:1019A000FEF7EAFE34602E46BEE70C2330603B6053
:1019B000DBE700BFDC1001080100FFFF0023334A12
:1019C0002DE9F0471268C0E912339042036508BF61
:1019D00001232F4908BF836181620546FFF79AFF03
:1019E000034628466B60FFF795FFA8602846002451
:1019F000FFF790FF04236E68DFF898A0DFF8989057
:101A0000DFF89880264FE8600822F3602146C6E997
:101A10000044C6E904447466B460B46106F15C0035
:101A2000FEF7AAFE1F4BC6E9086AC6E90A983763A3
:101A3000AE680822F3602146C6E90044C6E90444C2
:101A40007466B460B46106F15C00FEF795FE164B57
:101A5000C6E9086AC6E90A983763EE682146F3606A
:101A60000822C6E90044C6E904447466B460B4615F
:101A700006F15C00FEF780FE0123C6E9086AC6E9AC
:101A80000B87C6F82890AB61BDE8F087DC10010831
:101A9000D51800087D200008A5200008E5200008D2
:101AA000052100080900010012000200024B034951
:101AB000186800F0BDB900BFDC100108FD17000870
:101AC000836903B97AE77047704700BF704700BF6A
:101AD000704700BF704700BF024B0349186800F011
:101AE00087B900BF000C0020D1180008024B034941
:101AF000186800F07DB900BF000C0020E118000854
:101B00009368002B00F0B7802DE9F04FB1F90C304D
:101B10000C4619078046174683B098B225D523692D
:101B20001BB310F002033D682DD04FF0000B5E4652
:101B3000DFF8B8A2002E00F08B80564533465A4697
:101B400028BF53464046216AD4F828C0E047002801
:101B500040F38780BB6883441B1A361ABB60002B96
:101B6000E8D1002003B0BDE8F08F21464046FFF7E2
:101B70003FFD002840F03681B4F90C303D6898B242
:101B800010F00203D1D110F0010976D14E46002E9B
:101B90005AD08205D4F808B040F1B580B3455A4612
:101BA00000F2CD8010F4906F00F0CB8023682169A3
:101BB000A3EB010B636903EB430A0AEBDA7A0BF13F
:101BC00001034FEA6A0A33445345524684BF9A469A
:101BD0005246430540F1EA8011464046FFF7CEF8F1
:101BE000002800F0F9805A4621690190FEF7D2FCE6
:101BF000A289019B22F4906242F08002A28103EB51
:101C00000B0023613246AAEB0B03B346C4F814A0C1
:101C1000A3602060B246002649460192FEF730FDDF
:101C2000A3682168019AA3EB0B030A44A360226016
:101C3000B868D144A0EB0A00B860002891D0B4F98C
:101C40000C0080B2002EA4D1D5E9009608359EE79D
:101C5000D5E900B608356DE721464046FFF7CEFDD1
:101C600080B3B4F90C304FF0FF3043F04003A38150
:101C700003B0BDE8F08F002070471E46AA46994683
:101C800018461D4656B3002832D04A4620682169BE
:101C9000B24228BF32468842636904D9A16803EB87
:101CA000010B5A4574DC934265DC2A464046216AA2
:101CB000D4F828C0E047B0F1000BD2DDB9EB0B0936
:101CC000CAD00120BB685D44A3EB0B03A6EB0B0657
:101CD000BB60002B3FF445AF002ED4D10AF10803BE
:101CE00053F8046C9A4653F8085C0833002EF7D07A
:101CF00032460A21284600F04DF9002869D001300B
:101D0000A0EB0509C1E72068236998421BD86369E5
:101D1000B34218D86FF0004CB44528BFB4469CFBC2
:101D2000F3FC4A4603FB0CF34046216AD4F828C072
:101D3000E047B0F1000A94DDA6EB0A0678E7B34667
:101D40003246206866E7B345DA4628BFB2464946C0
:101D50005246FEF795FCA3682268A3EB0A0352449F
:101D6000A3602260002BE7D121464046FFF746FDE5
:101D70000028E1D075E7294693460192FEF780FCE2
:101D8000A368019A9B1AA36023681A44226095E70E
:101D900029465A46FEF774FC236821465B444046B8
:101DA0002360FFF72BFD002888D05AE7404600F05B
:101DB0003DF9034600287FF422AF40462169FEF733
:101DC00077FF0C22B4F90C30C8F8002023F0800310
:101DD00049E7721C914659E70C22B4F90C30C8F857
:101DE000002040E74FF0FF30BCE600BF00FCFF7F63
:101DF0002DE9F0410026884600F14807D7E9015453
:101E0000013D0ED4A389013D012B06D9B4F90E3052
:101E1000013302D02046C04706436B1C04F168041E
:101E2000F0D13F68002FE9D13046BDE8F08100BF16
:101E30002DE9F8434FF000090746884600F14806AF
:101E4000D6E90154013D10D4A389013D012B08D9E5
:101E5000B4F90E30013304D021463846C04749EA70
:101E600000096B1C04F16804EED13668002EE7D13E
:101E70004846BDE8F88300BFF0B58B890C4699074A
:101E800097B007D5012204F14703C4E90432236067
:101E900017B0F0BDB4F90E10054600292DDB6A46D7
:101EA0000DF0E2FE002827DB019E4FF4806706F468
:101EB0007046A6F50056B6FA86F6394628467609E3
:101EC000FEF75CFF30B3A3891A4A43F08003AA628D
:101ED000C4E90407A3812060002ED9D02846B4F9B4
:101EE0000E100DF0CDFE0028D2D0A38923F00303FD
:101EF00043F00103A381CBE7A38913F0800F14BF44
:101F000040274FF48067284639460026FEF736FF03
:101F10000028D8D1B4F90C309A05B9D4012123F0A6
:101F2000030304F1470243F00203C4E90421A3813F
:101F30002260ADE7D518000870B50C46B1F90E1057
:101F4000164600291D4696B013DB6A460DF08CFE3E
:101F500000280EDB01994FF4806301F47041A1F574
:101F60000051B1FA81F1002049092960336016B0AF
:101F700070BD0022B4F90C302A601B0604D5402342
:101F80000020336016B070BD4FF4806300203360D2
:101F900016B070BD5FFA81FC810710D00346511E58
:101FA0002AB90AE09A0718460AD0013905D318461B
:101FB00013F8012B6245F5D1704700207047114698
:101FC00003290CD80029F8D00346014401E08B42D4
:101FD000F3D0184613F8012B6245F8D1ECE702461E
:101FE00010B54CEA0C2444EA044410460368043259
:101FF0006340A3F1013E2EEA030313F0803F04D1B6
:10200000043903291046F0D851B10346014401E0D8
:102010008B4205D0184613F8012B6245F8D110BD4C
:10202000002010BD704700BF704700BFF8B51446D0
:10203000F9B1CAB106460D4600F068F8A04202D3D5
:102040002F463846F8BD21463046FEF797FE074634
:102050000028F6D022462946FEF79CFA304629464B
:10206000FEF726FE3846F8BD2746FEF721FE384625
:10207000F8BD1146BDE8F840FEF780BE10B50C462D
:10208000B1F90E100DF0E7FD002803DB636D03448A
:10209000636510BDA38923F48053A38110BD00BFE5
:1020A000002070472DE9F0410C46B1F90C101F4695
:1020B000CB05054616460BD421F48051A1813B4641
:1020C00032462846B4F90E10BDE8F0410DF0C8BD07
:1020D000B4F90E10022300220DF0C4FDB4F90C1067
:1020E000EAE700BF10B50C46B1F90E100DF0BAFDCD
:1020F000A389421C0EBF23F4805343F480536065D0
:10210000A38110BDB1F90E100DF0A3BD51F8040C60
:102110000028A0F10400BCBF0B58C018704700BFD6
:102120002DE9F74304460D4609F0B8F800274FF0B3
:1021300012092D4EDFF8B4807080E0B2854250D98C
:1021400000232B4A0FE01CF801EBBEF1FF0F01D07A
:1021500070451BD001310929F5D10133DBB20C2BBD
:1021600002F109023BD094460021ECE7012A07D195
:10217000012B05D173888DF800708DF8017016E081
:102180008DF801308DF80010738810E0D8F8002029
:102190002AB309FB032333F81120110AD3B2120A20
:1021A000E4D1002BECD18DF800308DF801308DF8A2
:1021B0000230009806F048FBC0F307238DF80400B6
:1021C000C0F307408DF805308DF806009DF8063005
:1021D00020469DF805209DF8041007F01BF90134F6
:1021E000ABE703B0BDE8F083640C00201C140020B2
:1021F0009A0C0020032805D8D82202FB00F10248DF
:1022000005F026B9704700BF20140020074B084A8C
:1022100010B51A600023074C2370607009F03EF877
:1022200060806078BDE81040FFF7E4BF1C14002018
:1022300020140020640C0020024B1878431E5842E2
:1022400058417047640C0020F0B5124B18780128F3
:102250001DD1114B1B68A3B112244A7804FB023331
:102260000A780E4933F812500E4631F8027BC4B298
:10227000AF4207D104F0070136F81110012023F80E
:102280001210F0BD01300928EFD10021F6E700203F
:10229000F7E700BF640C00201C1400204C1101085B
:1022A000704700002DE9F0431F4B85B01B784BB3FE
:1022B000002201AC1146104607F0E4F90025A046C3
:1022C0000A27DFF868900A2249464046FEF762F97D
:1022D00000F086FE0378EAB2B3FBF7F3934200D82E
:1022E000EAB900F07DFE03782678312B0DD9002362
:1022F000962219463046013507F08CF80A2D04F174
:102300000104E0D105B0BDE8F08300F069FE037878
:102310001D2B4FF00003EBD81A469621EAE7002365
:1023200020781A461946E6E734400020401101089B
:10233000F8B50D4616460446364F002845D00BF03A
:102340005DF8354B38601A69570402D51A691104D3
:1023500042D41A69520402D41B691F043ED42E4A87
:102360001169C1F38033490405D5136913F4004F93
:1023700014BF002302232A78511E042930D9062ACB
:1023800030D0002A0CBF03200020244A14B9117851
:10239000994202D11C1A18BF0124022B137023D0BA
:1023A000032B2AD0012B31D102232B7094B100F0E2
:1023B00071FA0022314600F0B7F90BF01FF8184B04
:1023C00018600AF0EEFF012005E038680AF0CBFF44
:1023D0003228B4D80020F8BD0323CCE70123CAE794
:1023E0000120D2E70220D0E703232B70002CF1D08C
:1023F00000F050FA00220621DDE701232B70002CAB
:10240000E8D000F047FA00221146D4E7002CE1D0D2
:10241000D3E700BF0015002000080040FC14002096
:10242000F8140020014B1860704700BFF81400201A
:1024300070B503F089F90446B8B100F0CDFD284D20
:1024400002782B789A4206D000F0C6FD002203786D
:102450002B70244B1A6000F0BFFD0378022B16D0BE
:10246000032B04D00BB91F4A1360204670BD1D4DCD
:102470002E689EB90AF0C2FF286000F00BFA0546EC
:1024800000F008FA32460146284601F0E5FE154DF7
:102490002868C0B90AF0B2FF2860E6E730460AF0C3
:1024A00062FF47F22F539842F1D90AF0A7FF286044
:1024B000112000F051FF44F620600CF0C8FB012011
:1024C00000F0F0FBE3E70AF04EFF074B9842CCD94F
:1024D0000AF094FF2860012000F0E4FBC5E700BF8C
:1024E000FD140020F8140020DF93040013B58DF8CC
:1024F00007100DF10701FFF71BFF044608B9FFF7AE
:1025000097FF204602B010BD2DE9F04103F01CF901
:10251000002828D020224FF4804158480DF060FE5A
:1025200000BF00BF00BF00BF00BF00BF00BF00BFB3
:1025300000BF00BF00BF00BF00BF00BF00BF00BFA3
:1025400000BF00BF00BF00BF00BF00BF00BF00BF93
:10255000302383F3118803220E2148480DF060FEDA
:10256000002383F3118803F0EFF8002828D02022FD
:102570004FF4004141480DF033FE00BF00BF00BFE3
:1025800000BF00BF00BF00BF00BF00BF00BF00BF53
:1025900000BF00BF00BF00BF00BF00BF00BF00BF43
:1025A00000BF00BF00BF00BF00BF302383F311880E
:1025B00003220F2131480DF033FE002383F31188ED
:1025C0002F4B1B7873B309244FF001082D4E56F89A
:1025D000041B4A1C0BD021F00F0701F00F0108FA71
:1025E00001F50122294638460DF0FAFDBD61013C96
:1025F00014F0FF04EBD14FF00108234E56F8041BF2
:102600004B1C0BD021F00F0701F00F0108FA01F568
:102610000122294638460DF0E3FDBD610134E4B2E4
:10262000092CEBD1002280214FF080400DF0D8FD25
:1026300000BF00BF00BF00BF00BF00BF00BF00BFA2
:1026400000BF00BF00BF00BF00BF00BF00BF00BF92
:1026500000BF00BF00BF00BF00BF00BF00BF00BF82
:10266000302383F31188012207214FF080400DF0C1
:10267000D7FD002383F31188BDE8F08100080040F6
:10268000F41E00205C11010880110108072805D004
:102690000E38012804D8072000F0E4BA0320FBE735
:1026A0007047000008B503F04FF838B14FF0804391
:1026B0004FF400129A614FF000729A61074B1B7839
:1026C0005BB1112000F048FE44F620600CF0BFFA28
:1026D000BDE80840022000F0C5BA08BDF41E002085
:1026E00010B5084C237863B100F0C2FA0338012812
:1026F0009DBF0023032023700220BDE8104000F09E
:10270000A3BA10BDF41E002008B500F065FC0378E4
:10271000022B03D100F068FC007808BD0020FCE724
:1027200000F04ABC70470000F8B50C461546064656
:10273000F8B921BB134F3B78A34200D13DB100F063
:102740004BFC0323037000F04FFC002303703C702C
:1027500004F07AFA2946204600F09AFE2A462146DD
:10276000304601F079FD2A4621463046FFF7DAFF70
:10277000F8BD0029DED1012000F00EFADAE70220D0
:10278000FAE700BF1A15002037B5044600F024FC14
:102790000378012B0DD00025CDE9005500F01CFC7D
:1027A0000378022B07D0094B2A4619780846FFF711
:1027B000BBFF03B030BD24B1082221466846FDF7B7
:1027C000E9FE684600F026FDF3E700BF1A15002079
:1027D00037B5044600F000FC0378012B0ED000252D
:1027E00000958DF8045000F0F7FB0378022B07D01A
:1027F0000D4B2A4619780846FFF796FF03B030BD07
:1028000074B163788DF80030A3788DF80130E378E7
:102810008DF8023063798DF8033023798DF8043018
:10282000684600F05BFDE9E71A15002037B504465D
:1028300000F0D2FB0378012B0DD00025ADF8065037
:1028400000F0CAFB0378022B07D0114B2A461978F7
:102850000846FFF769FF03B030BD002CFBD063785A
:10286000A27843EA0223ADF80630813B022B09D857
:1028700001220DF1060002FA03F3ADF8063000F074
:1028800011FDE8E70DF1060000F0F6FCE3E700BFFC
:102890001A150020014B1878704700BF1A15002048
:1028A00038B5154C00252378032B22D8DFE803F038
:1028B000020B131B0A2311488370C5700AF050FBEA
:1028C0000123237038BDF6230C48C37085700AF0CD
:1028D00047FB0223F5E7F62308488370C5700AF02A
:1028E0003FFB0323EDE70A2304488570C3700AF019
:1028F00037FB2570E6E700BF041500200C1500200B
:102900007047000010B5FFF7FBFF00F079FA00F008
:1029100075FB01F03BFA00F05BF9012803D1BDE83B
:10292000104000F05BB900F089F968B9074C2068E5
:1029300004F0E2FC40F6B733984205D900F00EFEF1
:1029400010B104F0C9FC206010BD00BF08150020C4
:102950002DE9F04F00258FB08146CDE90255049551
:10296000ADF8145000F038FB0378012B0AD000F0CA
:1029700033FB0378022B08D05C4B2A4619780846B3
:10298000FFF7D2FE0FB0BDE8F08FB9F1000F00F0F5
:10299000A4804FF01E082022494606A8FDF7FAFD44
:1029A000534F9DF819300DF11A063B7016F8010BC4
:1029B000FDF734FC08F1FF34054414F0FF08EDB2D4
:1029C000F4D14C4E4FF0060BB2461AF8013B9BB3C4
:1029D00000242246D3B29D420BD81AF8013CA342F0
:1029E00018BF0AF8018C22E001331E2B04D11C46CB
:1029F00007E000230DF11A0111F8010BDCB20028E9
:102A0000F2D004F138036B4413F81E0C019203F06A
:102A10002AF840EAC404E4B2214606A80AF070FB92
:102A20001AF8013C019AA34202F10102D2D10BF142
:102A3000FF3B1BF0FF0BC8D14946202206A8FDF73B
:102A4000A9FD4FF000084FF001095FFA88F39D429D
:102A50000FD800F095FA002845D125480AF06AFA07
:102A600002A800F0F0FB8DE701331E2B04D11C46B9
:102A700007E000230DF11A0212F8011BDCB2002955
:102A8000F2D004F138036B4413F81E0C02F0EBFF94
:102A900040EAC404E4B2214606A80AF031FB3246FB
:102AA000002312F8011BA14202D021B93B449C70C3
:102AB00008F10108C9E70133062BF2D16F2CF7D8D2
:102AC0000EAB03EBD40313F8301C04F0070409FA2F
:102AD00004F40C4303F8304CEAE708224946044862
:102AE000FDF74AFEB5E7FFF70DFFB2E71A15002024
:102AF000121500201415002070B5044660B10AF0CC
:102B0000E9F90D4B834215D018460AF0DDF9BDE80E
:102B1000704001200AF0C6BB00F05EFA0378022B79
:102B200008D1054D20466B6898472046AB68BDE844
:102B30007040184770BD00BF680C002038B50446CF
:102B400088B10AF0C7F9114C84421ED00122104B03
:102B50001A7001F051F80F480BF00CF92046BDE84F
:102B600038400AF0B1B90B4B1B78042B05D1074D47
:102B70006B6898472046AB68984706480CF0FCFD08
:102B800004480DF0F7F901F03FF838BD140F0020AC
:102B90003D3C0020504F002010B50C4B04461A78E5
:102BA000824204D00128187002D0022807D010BD3C
:102BB0000020FFF7A1FF2046FFF7C0FFF7E7002046
:102BC000FFF7BCFF0120FFF797FFF0E7800C002024
:102BD000014B1878704700BF800C002010B5FFF73C
:102BE00059FE0E4CB0B90E4B1B78052B12D1236841
:102BF00013B904F071FB2060206804F07DFB41F6FE
:102C00005733984208D9002301202360BDE81040C3
:102C100000F048B80023236010BD00BF1C15002041
:102C2000504F002008B5044B186804F065FBC72816
:102C300094BF0020012008BD24150020014B187806
:102C4000704700BF20150020014B1870704700BF6F
:102C50002015002008B504F03FFB014B186008BDAB
:102C600024150020014B1870704700BF2815002064
:102C7000014B1878704700BF28150020302310B58D
:102C800083F3118800F0A0FC002484F3118872B64D
:102C900000F052FE00F094FD04F092FC84F31188E1
:102CA00062B610BD014B1870704700BF2915002097
:102CB00010B5074C237828B11BB1FFF7CBFF0323D6
:102CC000237010BD002BFCD10122024B1A70F8E7D3
:102CD0002015002029150020F8B50F4B0F4E1F6856
:102CE00001F001F8054618B9002434702046F8BDFB
:102CF000FFF7D0FD18B90A4B1B78042BF4D03478B9
:102D00001CB100232C463370F0E7002FEED003F007
:102D10008FFFB842EAD3F4E7840C00202915002085
:102D2000504F002008B500F0E1FF18B1BDE80840A1
:102D3000FFF778BF08BD0120704708B5FFF7FBFF1C
:102D400018B1BDE80840FFF76DBF08BD70B5FFF7CB
:102D5000A1FD044668B9084E3578012D09D100F06F
:102D60004BFF30460BF006F8224621462846FFF777
:102D7000DBFC012070BD00BF504F002008B5FFF7FD
:102D8000E5FF18B1BDE80840FFF74CBF08BD70472C
:102D900008B508F0D3F9003818BF0120044B1870AB
:102DA00008F0B4F90AF0F4FAFFF7F1FF08BD00BF2C
:102DB0002A150020002310B5074C2370FFF772FC82
:102DC000FFF75CFF2378054A022B18BF032313701B
:102DD000FFF786FC10BD00BF28150020201500203D
:102DE00008B5064B1B780BB108F076F90AF0D9FA52
:102DF00002F086FCBDE8084003F026BF2A1500203B
:102E000010B5154C2378032B1BD8DFE803F0020A1A
:102E1000131BFFF761FFA0B1FFF71CFF0123237015
:102E20000FE0FFF77FFF60B1FFF7B2FFFFF712FF80
:102E30000223F4E7FFF781FF18B1FFF70BFFFFF75D
:102E4000B9FF10BDFFF79AFF0028FAD0FFF7C8FFBF
:102E5000FFF700FF0023E2E720150020202938B506
:102E600005460C4610D1FFF7B3FE012806D12246D5
:102E70002946BDE8384002200AF0C2BF2146284654
:102E8000BDE8384000F0E0BA38BD09F0D1BE00001E
:102E9000054A064B06495A60116051609A60DA6033
:102EA000002219611A707047101D0020FC1C0020C0
:102EB0002B1500202DE9F041174C0E466768A568D8
:102EC00007F59C784545E36804D19F4206D1002070
:102ED000BDE8F08105F108029342F7E70F49226946
:102EE00001F2CF739B1A312B98BF2161322EEED89D
:102EF0002369014632461846FDF74CFB034645451B
:102F0000334428606B6018BF08354FF0010023611F
:102F10000CBFA760A560DBE7FC1C00202B15002080
:102F2000074A10B5D3689268934207D0D3E90014DA
:102F3000641A2246FDF72EFB204610BD0024FBE755
:102F4000FC1C0020074BDA6899688A4208D059684F
:102F500001F59C70824201D1D96070470832DA6075
:102F6000704700BFFC1C0020014B1878704700BF61
:102F7000FC1C0020014B1870704700BFFC1C002097
:102F8000034BD8689B68C01A18BF0120704700BF68
:102F9000FC1C00200246002330B50C1812F8015B1F
:102FA0002B44A242DBB2F9D1435430BD012070471B
:102FB00008B5FFF7FBFF08BD08B54FF4E1300AF094
:102FC000B3FCFFF765FFBDE808402422002101485B
:102FD000FDF7D2BB551E002000487047880C00202A
:102FE000004870478B0C002000487047890C002077
:102FF00018B111B189B20AF0C7BC704773B5FFF7B9
:10300000B3FF03280FD8DFE800F040022D3B774BD9
:10301000186804F071F90A2805D900220220744BBF
:103020001A70FFF7A7FF734D734C0AF0B7FC002826
:1030300056D00AF09FFC2A68012A38D0022A3ED0D6
:10304000002A5BD161282FD85F2804D8A0F15A0349
:10305000DBB2032BE9D8012302222B60674B2070DF
:103060001A70E2E7624A13780133DBB2282B02D8E8
:1030700013700020D5E700231370FFF763FFF8E714
:10308000FFF760FF0020FFF775FF5D48FFF748FF7F
:1030900001460028C7D05A48FFF7AAFF04F01CF9E0
:1030A000524B18600120BCE7AF28BED1D3E7022302
:1030B000524A2B6013786070013B1370B5E7237898
:1030C000612B0FD163780D2B18D10A2816D1FFF789
:1030D0004BFF012802D10320FFF74CFF00232B6098
:1030E00002B070BDAF2B09D16378602B06D10323EA
:1030F0002B60424BA0700130187096E73F49531C7B
:103100002B600B78A054013BDBB20B70002B8CD1F1
:10311000194639488A421FD1A25C9A4230D1032213
:10312000384901A8FDF736FA032101A80AF02CFC62
:1031300020462978FFF73CFF0028D1D02378602B68
:1031400010D8592B1CD95A3B062B19D8DFE803F0AD
:103150001B1F3F431818470010F8016B013133441F
:10316000DBB2D7E7AF2B0BD1A678202E08D12649AA
:1031700032462648FDF70EFA31462448FFF785FE11
:1031800000232B6051E76278214B5A70F8E763788F
:10319000313B052BF4D801A252F823F0B5310008D9
:1031A000BD310008C33100088131000881310008B9
:1031B000C93100080122164B1A70E1E70222144BB4
:1031C000FAE70322124BF7E70422114BF4E7627887
:1031D0000F4BDA70D4E762780D4B9A70D0E76078C5
:1031E000431E58425841FFF763FDC9E7C01E002047
:1031F000BD1E0020501E0020991E0020541E0020DD
:10320000551E0020A41101089C1E0020791E0020DC
:10321000880C00201FB5002301930293ADF80C30F9
:10322000A123082201460DF105008DF80430FDF7B9
:10323000B1F901A80921FFF7ADFE0A21FFF73AFE17
:1032400005B05DF804FB1FB50023CDE90033029300
:103250000393A2230E2201460DF101008DF80030E8
:10326000FDF798F968460F21FFF794FE1021FFF74C
:1032700021FE05B05DF804FB002307B50193A323ED
:10328000022201460DF105008DF80430FDF782F9A8
:1032900001A80321FFF77EFE0421FFF70BFE03B018
:1032A0005DF804FB37B5022504462A460A4901A801
:1032B000FDF770F900238DF80630A4238DF8043053
:1032C0002378294601A88DF80530FFF763FE032116
:1032D000FFF7F0FD03B030BD900F0108002307B5E4
:1032E0000093ADF804308DF80630A823052201467E
:1032F0000DF101008DF80030FDF74CF9684606210C
:10330000FFF748FE0721FFF7D5FD03B05DF804FB8A
:1033100030B50021054687B0112201A80091FDF7C4
:103320002BFA2846FDF73EFCC4B2122C11D8A92373
:10333000224629460DF102008DF800308DF801403B
:10334000FDF728F9A11C6846FFF724FE1521FFF7B9
:10335000B1FD07B030BD000037B5022504462A464E
:103360000A4901A8FDF716F900238DF80630A623B7
:10337000294601A88DF804308DF80540FFF70AFEB4
:103380000321FFF797FD03B030BD00BF900F010888
:1033900030B50C4600218FB005462D2202A80191C0
:1033A000FDF7EAF92E2C11D8AB23224629460DF160
:1033B00006008DF804308DF80540FDF7EBF8A11CF0
:1033C00001A8FFF7E7FDE11CFFF774FD0FB030BD6A
:1033D00030B50C4600218FB005462D2202A8019180
:1033E000FDF7CAF92E2C11D8AC23224629460DF13F
:1033F00006008DF804308DF80540FDF7CBF8A11CD0
:1034000001A8FFF7C7FDE11CFFF754FD0FB030BD69
:103410001FB5002304220293ADF80C30AD2340EA1F
:10342000014001900DEB02010DF109008DF808300B
:10343000FDF7B0F802A80521FFF7ACFD0621FFF764
:1034400039FD05B05DF804FB30B50C4600218BB0AA
:103450000546202202A80191FDF78EF9202C14D1F7
:10346000AF238DF804306123224629460DF1070071
:103470008DF805308DF80640FDF78CF8232101A862
:10348000FFF788FD2421FFF715FD0BB030BD0000CC
:1034900010B50C46062851D8DFE800F004212C3581
:1034A0003E4709001120BDE81040FFF755BF30200E
:1034B000FFF752FF002C41D012212148FFF768FF8F
:1034C00018212048FFF784FF43F22D404EF2C641F9
:1034D000FFF79EFF5220FFF73FFF5120E3E7312027
:1034E000FFF73AFF54B35220FFF736FF1648FFF7B5
:1034F0000FFFF2E73220FFF72FFFFCB15220FFF75A
:103500002BFF1248F3E73320FFF726FFB4B1522018
:10351000FFF722FF0E48EAE73420FFF71DFF6CB1EA
:103520005220FFF719FF0B48E1E73520FFF714FFA2
:1035300024B15220FFF710FF0748D8E710BD00BFA5
:10354000A8110108BA110108D2110108DC11010803
:10355000E6110108F0110108FC11010808B5FFF798
:103560000FFD20B95320FFF7F7FE012008BD002012
:10357000FCE7000010B5C4B20B2C03D0122C0ED007
:10358000012000E00220FFF76DFB2046FFF77EF8E8
:103590000CF0FFFD4FF0FF32024B5A6110BD0420CA
:1035A000F1E700BF001800400023054A0549C2E9C1
:1035B00000130133102B02F10802F8D1704700BF4D
:1035C000B04B0020753500082DE9F041FFF7ECFF06
:1035D00002F0BAF8002800F0938009254FF00108A6
:1035E000724E56F8041B481C0CD021F00F0701F056
:1035F0000F0108FA01F421460522384624040CF094
:10360000EFFDBC61013D15F0FF05EAD1062401265E
:103610003027674D55F8040B411C2ED000F00F01E8
:10362000202206FA01F120F00F000CF0D9FD00BFB6
:1036300000BF00BF00BF00BF00BF00BF00BF00BF92
:1036400000BF00BF00BF00BF00BF00BF00BF00BF82
:1036500000BF00BF00BF00BF00BF00BF00BF87F3B7
:10366000118855F8040C022200F00F0120F00F0021
:103670000CF0D6FD002383F31188013C14F0FF0405
:10368000C8D100224FF480614FF080400CF0A8FDBB
:1036900000BF00BF00BF00BF00BF00BF00BF00BF32
:1036A00000BF00BF00BF00BF00BF00BF00BF00BF22
:1036B00000BF00BF00BF00BF00BF00BF00BF00BF12
:1036C000302585F3118803220A214FF080400CF049
:1036D000A7FD002484F3118885F3118801220C21B1
:1036E0004FF080400CF09CFD84F3118806212320CC
:1036F0000CF0F6FAFEF708FFBDE8F0410CF02ABD29
:1037000009254FF001082B4E56F8041B4A1C0CD01B
:1037100021F00F0701F00F0108FA01F421460522FC
:10372000384624040CF05CFDBC61013D15F0FF053A
:10373000EAD10624012630271F4D55F8040B431CFF
:103740002ED000F00F01202206FA01F120F00F0028
:103750000CF046FD00BF00BF00BF00BF00BF00BFB0
:1037600000BF00BF00BF00BF00BF00BF00BF00BF61
:1037700000BF00BF00BF00BF00BF00BF00BF00BF51
:1037800000BF00BF87F3118855F8040C022200F037
:103790000F0120F00F000CF043FD002383F311888C
:1037A000013C14F0FF04C8D16BE700BF0812010808
:1037B000AC1201082C120108AC120108704700007D
:1037C00008B50AF067FB03222B4B2C499A620C22A6
:1037D000DA62D1F890202A4822F01802C1F890202D
:1037E00000229A62DA62D3F8402C03F5406342F477
:1037F00080721A641A6C4FF4006142F002021A647B
:1038000001225A63DA67DA6608225A615A695A61F4
:103810005A6942F001025A619A6C42F4C0629A6499
:103820009A6C9A6C42F480429A649A6CDA6C42F018
:103830000802DA64DA6C9A6C42F480529A649A6CE8
:10384000DA6C42F01002DA6440F28232DB6C0CF087
:10385000C7FC40F282324FF400714FF080400CF010
:10386000BFFC40F282324FF480614FF080400CF098
:10387000B7FCFFF7A3FF08BD0000014000040140B2
:10388000000800404FF0E02210B500210124136928
:1038900023F001031361224B224A5A6100228B005C
:1038A00003F1604303F56143D3F80001D040C00742
:1038B00048BF04FA02F002F1010248BFC3F88001D8
:1038C000202AF1D101310829E8D1174C636843F06F
:1038D00000736360154B1A6802F009021A601A68D7
:1038E00042F46C3242F004021A6040F2B3321A62BF
:1038F0000F4B43F001039847236943F0040323610E
:1039000030BF0C4B43F0010398474FF0E02223698E
:1039100023F004032361136943F00103136110BD15
:1039200000180040FFFF070000ED00E0000001402C
:103930008412010850120108FFF7A4BF0B8807B5D5
:10394000A3F5FC43032B1ED8DFE803F002213B550F
:10395000364A012013789278C3F3420302F007023B
:103960000DF107018DF80730FEF7E2FC9DF80730F6
:10397000042B02D013F0FD0F05D1FEF78BFF0122BF
:103980001146FEF7D1FE002003B05DF804FB274A84
:10399000012013789278C3F3420302F007020DF17D
:1039A00007018DF80730FEF7C3FC9DF80730042BA4
:1039B00002D013F0FD0FE6D1FEF76CFF01220221C9
:1039C000DFE71A4A012013789278C3F3420302F02A
:1039D00007020DF107018DF80730FEF7A9FC9DF8ED
:1039E0000730042B02D013F0FD0FCCD1FEF752FFAD
:1039F00001220321C5E70D4A012013789278C3F311
:103A0000420302F007020DF107018DF80730FEF7BF
:103A10008FFC9DF80730DA1E012A01D9002BB2D1A4
:103A2000FEF738FF01220621ABE700BFAC490020BA
:103A300008B540F282324FF400714FF080400CF034
:103A4000CFFBBDE8084040F282324FF480614FF076
:103A500080400CF0C5BB000010B50A4C238803F071
:103A60000E0363F0FE032380A37823F00F0343F0DB
:103A70000103A370FEF714FC2068BDE8104003F0BA
:103A80008AB800BFAC490020002310B586B08DF87D
:103A90000C3004938DF8143055238DF8083005232D
:103AA00004AC8DF809008DF80A108DF80B2019462A
:103AB000009402AA0F2004F0D9F906B010BD00004E
:103AC00008B503F066F8044B186018B9BDE8084063
:103AD000FFF7C2BF08BD00BFAC49002008B5FFF723
:103AE000EFFF09F08BFC3C4B186001F02DFE01222A
:103AF000202100285CD04FF080400CF071FB07F0D3
:103B0000CDFB18B14FF0804320229A6101224FF47F
:103B100080714FF080400CF063FB07F0BFFB20B1D9
:103B20004FF080434FF480729A6120224FF480411D
:103B30002A480CF055FB20224FF4004127480CF096
:103B40004FFB4FF4003326480122836102210CF021
:103B500047FB002280214FF080400CF041FB4FF4E6
:103B6000004120224FF080400CF03AFBFEF7D8FDD8
:103B700009F044FC1B4B186003F0AFF81A4B18789F
:103B80000009FEF743FB07F065FB184BC0F3072263
:103B90001870C0F307405A709870FFF721FA144B61
:103BA000027814491A700F20BDE8084004F050B99B
:103BB0004FF080400CF014FB01224FF480714FF065
:103BC00080400CF00DFB07F069FB0028ADD04FF0F2
:103BD000804320229A61A5E7EC1E002000080040E7
:103BE00000040040F81E0020AC490020A849002035
:103BF00038400020295600084FF40032014B9A61EA
:103C0000704700BF000400400222014B9A617047D8
:103C1000000400407FB5FFF70BFF042200210DF1E7
:103C20000900FCF7A9FD002204AB04928DF81420D2
:103C30000093CC2205238DF80820194602AA0F20F4
:103C400004F014F907B05DF804FB10B501F07CFD39
:103C500070B107F023FB18B14FF0804320229A6126
:103C600007F01CFB20B14FF080434FF480729A6143
:103C7000FEF710FE0446FEF70DFE00220146204628
:103C8000FEF752FDFFF7C6FF09F0B8FBBDE8104094
:103C9000FEF7C8BB7FB5042200210DF10900FCF737
:103CA0006BFD002204AB04928DF814200093BB221C
:103CB00005238DF80820194602AA0F2004F0D6F833
:103CC00007B05DF804FB08B501F03EFD38B14FF0D8
:103CD00080434FF400129A614FF080729A61BDE800
:103CE0000840FFF7D7BF00207047000010B586B02E
:103CF00001F02AFD48B30023ADF80A308DF80C30EE
:103D000004938DF81430AA238DF808301A4B04AAB6
:103D10001B780F208DF8093005230092194602AA5E
:103D200004F0A4F8154B1B7813F00E0F0DD00422ED
:103D30004FF480614FF080400CF052FA04224FF4AF
:103D400000714FF080400CF04BFAFEF7A3FD78B9FC
:103D50000B4B1B7863B90B4C2378012B08D0022244
:103D6000094B20469A610CF005F920460BF004FD42
:103D7000012006B010BD00BFF41E0020AC49002099
:103D8000D01E0020504F00200004004038B5144DD4
:103D9000144C2868C8B109F0E6FA632815D97020D8
:103DA000FFF7DAFA5520FFF7D7FA5720FFF7D4FAD2
:103DB0000022217811F00E0F0CBF01201046C1F334
:103DC0004201FEF7B1FC00232B60A278217800208D
:103DD000BDE8384002F00702C1F34201FEF786BB9E
:103DE000F81E0020AC490020554B37B51880A0F5CF
:103DF000FC400C46032800F2A080DFE800F002350A
:103E00005778504A012013789278C3F3420302F0A6
:103E100007020DF107018DF80730FEF789FA9DF8CA
:103E20000730042B02D013F0FD0F1AD16579464CF0
:103E3000002D7DD0FEF72EFD012805D0FEF72AFDCE
:103E400000220121FEF770FC237833B940F6B83028
:103E50003B4A3E4907F038FE207009F0CFFAFEF7E2
:103E6000E1FA002003B030BD364A01201378927881
:103E7000C3F3420302F007020DF107018DF807308A
:103E8000FEF756FA9DF80730042B02D013F0FD0F11
:103E9000E7D165792C4C002D4AD0FEF7FBFC0228B7
:103EA000D2D0FEF7F7FC00220221CBE7254A012001
:103EB00013789278C3F3420302F007020DF1070171
:103EC0008DF80730FEF734FA9DF80730042B02D046
:103ED00013F0FD0FC5D165791B4C4DB3FEF7DAFC2D
:103EE0000328B1D0FEF7D6FC00220321AAE7154A29
:103EF000012013789278C3F3420302F007020DF118
:103F000007018DF80730FEF713FA9DF80730DA1E27
:103F1000012A01D9002BA4D165790B4C45B1FEF7DC
:103F2000B9FC062890D0FEF7B5FC0022062189E7EF
:103F3000207807F0D7FD25708FE7012092E700BFBA
:103F4000DE1E0020AC490020FF1E00203D39000885
:103F50002DE9F04104460D4601F096FC0646A0B35B
:103F6000244B1A783AB16A792AB1002211461046D8
:103F70001A7005F087FBFFF72FF80378022B03D1A7
:103F800009F03CFAFEF74EFA45F223239C4207D093
:103F900047F643039C4218D045F221239C4217D197
:103FA00095F80580B8F1000F0FD1FEF745F90746E7
:103FB00058B1114E33782BB12946204686F800803F
:103FC000FEF742F9012333703E463046BDE8F081EA
:103FD000FEF732F90028F8D0A4F5A443203B1F2BAC
:103FE000F3D96B79002BF0D029462046FEF72CF947
:103FF0000026EAE7FE1E00205840002013B507F017
:10400000E3F80128374C0CD107F024F9C0F307235B
:1040100010F0FF008DF8053013D1DBB2C3B10323DC
:10402000237023780133DBB20B2B237020D10023C4
:10403000237007F063F823782B4AD05C07F0C0F8B0
:1040400022E0782810D005D8282809D0502809D097
:104050000923E5E7A02809D0C828F9D10823DFE71C
:104060000423DDE70523DBE70623D9E70723D7E7AA
:104070000A2BDED107F0EEF8FF21C0F30742002043
:1040800007F0E5F807F052F807F0E4F82378C0F3FA
:104090000742092B24D8DFE803F01D2323050C0F6A
:1040A0001215181BFF21002002B0BDE8104007F0D8
:1040B000CEB8FF212820F7E7FF215020F4E7FF21A9
:1040C0007820F1E7FF21A020EEE7FF21C820EBE7F1
:1040D0000021E8E7FF2002B0BDE8104007F05CB91E
:1040E000C820F8E7F51E00208C0C002030B587B002
:1040F000FEF7D0FB20B93E4B1B780BB1FEF7D0FB8F
:10410000FEF700FC4FF080431B693A4CC3F3C01329
:10411000237001F019FB40B3374D286809F023F9EB
:10412000B0F57A7F21D309F069F90023ADF80A30A0
:104130008DF80C3004938DF81430F1238DF808308D
:10414000237804AA8DF809300523286019460092C7
:104150000F2002AA03F08AFE38B109F04FF9274B6D
:104160009DF811201860264B1A704FF080431B6990
:10417000244AC3F3C0331370227882B3002B14BFD8
:1041800066246424204D286858BB09F037F928605C
:104190002046FFF7E1F85320FFF7DEF801F0D4FAEC
:1041A000C0B11A4C206809F0DEF8B0F5FA6F11D9E9
:1041B00009F024F92060FEF713FF154D03782B70EA
:1041C000FEF768FB0446FEF765FB2A7801462046A9
:1041D000FFF75AFC07B0BDE8304002F09ABD6524F5
:1041E000D0E709F0C0F8B0F57A7FCED8D6E700BFA7
:1041F00035400020D01E0020E81E0020EC1E0020CC
:10420000E41E0020C41E0020D81E0020E01E002056
:104210003840002073B5154606461C46019109F04A
:10422000EDF8084B03221860074B64001E60074B33
:1042300001A91D60064B07481C60FCF7ABF902B0F2
:1042400070BD00BF0C1F0020001F0020041F0020B5
:10425000101F0020091F0020F7B55E4B5E4D0E4673
:104260002F7814461A70FEF715FBC7F342078742F2
:1042700013D0FEF70FFB2B7800F0070060F3430329
:104280002B7003F00E032BB103289EBFAB7860F3B5
:104290000203AB70286802F07EFC711E052900F253
:1042A0009780DFE801F0031F374F677FFF237CB162
:1042B00000228DF806308DF804208DF805200123AA
:1042C000C8221120019903B0BDE8F040FFF7A2BF5A
:1042D0008DF806304FF4FA7201238DF804408DF802
:1042E0000540EEE7FF235CB100228DF806308DF823
:1042F00004208DF805200123C82212200199E2E74D
:104300008DF806304FF4FA7201238DF804408DF8D1
:104310000540F2E7FF235CB100228DF806308DF8EE
:1043200004208DF805200123C82213200199CAE733
:104330008DF806304FF4FA7201238DF804408DF8A1
:104340000540F2E7FF235CB100228DF806308DF8BE
:1043500004208DF805200123C82229200199B2E705
:104360008DF806304FF4FA7201238DF804408DF871
:104370000540F2E7FF235CB100228DF806308DF88E
:1043800004208DF805200123C8222A2001999AE7EC
:104390008DF806304FF4FA7201238DF804408DF841
:1043A0000540F2E7FF238DF804304CB10023C8220A
:1043B0008DF805308DF8063001231420019982E72D
:1043C00001234FF4FA728DF805408DF80640F4E7AA
:1043D00003B0F0BD081F0020AC49002010B5FEF767
:1043E000FBFD0378022B0CD0FEF754FA0446FEF7CF
:1043F00051FA064B01461A782046FFF72DFF01209F
:1044000010BD01F057FB0020FAE700BF081F002095
:1044100070B5164C2068D0B108F0A5FF144B154DAF
:104420001B68984208D2144B18682B6813F00103DC
:1044300013D11A46194614E008F0E0FF2B682060FB
:1044400033B900232360FFF7C9FF0028EBD170BD0B
:10445000013B2B60002BE6D1F3E708498B784A78C3
:104460000978BDE8704004F0D5BF00BF0C1F0020E4
:10447000041F0020101F0020001F0020091F002023
:10448000F7B50C4C1D46237806461746019173B9C3
:104490000123237008F0B2FF6D006060032201A9C0
:1044A00004F11100A760E5602674FCF773F803B00F
:1044B000F0BD00BF3C40002010B5124C237803B380
:1044C000606808F050FFA36898420FD308F096FF89
:1044D000E368606033B900232370636000231A46E9
:1044E000194609E0013BE360002BF4D0E368DB07E9
:1044F000F4D5E37CA27C617C207CBDE8104004F014
:1045000089BF10BD3C40002013B501F01DF9002803
:104510004AD0264B1C78B4B1254B26491A78264B35
:104520001B785BB100230B60002A3DD01A46FF21A7
:104530003F2002B0BDE8104004F06CBF0B609AB39E
:10454000FF221946F4E7FEF74BFD0378052B29D827
:10455000FF238DF805408DF804308DF806400123C7
:1045600047F230523F200199FFF78AFFFEF738FDEE
:104570000378CBB90F4C236813B908F03FFF2060D4
:10458000206888B108F0EFFE4EF6602398420BD900
:10459000002301202360094B187002B0BDE81040D1
:1045A000FEF780BB034B1C6002B010BDD01E002084
:1045B000DC1E0020CC1E0020C41E0020F41E0020A3
:1045C0002DE9F34106461D46182000231746134ADD
:1045D000019100FB03F111F802808C18B8F1000F73
:1045E00017D10123237008F009FF6D0060600322DA
:1045F000A760E560267401A904F11100FBF7CAFF6A
:10460000FF2E0ABF064BC4F81480636102B0BDE8F8
:10461000F0810133632BDCD1F8E700BF604000205C
:10462000B54600081FB500248DF800408DF8014004
:104630008DF8024000990123FA223620FFF7C0FFCF
:104640008DF804408DF805408DF80640019901234E
:10465000FA224220FFF7B4FF8DF808408DF8094098
:104660008DF80A4002990123FA224320FFF7A8FFA0
:104670000123FA2241208DF80C408DF80D408DF871
:104680000E40039904B0BDE81040FFF799BF102316
:1046900007B58DF804308DF805308DF80630FA2214
:1046A0000323FF200199FFF78BFF012003B05DF882
:1046B00004FB00001822144B82B002FB0030437C44
:1046C0006E2B10D1827CE2B9C27CD2B98DF8043055
:1046D0008DF805208DF806200123FA22FF2001998C
:1046E00002B0FFF76DBF63B9837C6E2B09D1C37C29
:1046F0003BB98DF804308DF805306F238DF8063006
:10470000EAE702B0704700BF60400020094A00237A
:10471000114610B5147C844206D11822534300225E
:10472000C818C260CA5410BD0133632B02F11802CD
:10473000F0D1F8E76040002070B586B005460E461F
:10474000FFF706FC18B90024204606B070BD3146BC
:104750002846FFF749FB04460028F4D0452D7FD8B2
:104760001D2DF1D91E3D272DEED801A353F825F0BC
:10477000054C00084D4C0008954C0008E94C000819
:104780003D4D0008894D0008CB4D0008134E000830
:104790005B4E0008A34E000849470008834F0008FD
:1047A000ED4F00084947000849470008EB4E000854
:1047B000334F0008494700084947000849470008A7
:1047C000494700084947000849470008B14F000819
:1047D0004947000849470008494700084947000879
:1047E0003B49000875490008AF490008E94900083D
:1047F000234A00085D4A0008974A0008D14A000889
:104800001D4B0008574B0008914B0008CB4B00088C
:10481000A5F5FC45053D022D00F25584DFE815F0B5
:10482000620512043D04A5F5F045433D092D8BD8E2
:1048300001A353F825F000BF69520008494700085A
:104840004947000849470008494700084947000808
:10485000135100086D510008E5500008FF50000892
:1048600047F64C039D424BD847F642039D42DAD8A7
:10487000B5F5A44F00F0A5841FD8E32D00F0038503
:10488000E72D7FF461AFA14D287801F0ECF8022804
:1048900040F01C859E4B1B78DB067FF555AFFDF77E
:1048A000CBFC00287FF450AF7579E720002D00F095
:1048B000158500F0B3FF2C4646E745F202239D42E2
:1048C00000F0A98447F213039D427FF43DAFFDF74A
:1048D000B3FC002840F0B8837579002D3FF434AF65
:1048E00000236E228DF810308DF811208DF81230D3
:1048F000FA220123FF200499FFF762FE2C4623E7EA
:1049000047F607639D423FF61FAF47F603639D429C
:104910003FF67EAFB5F5F84F00F0CA8347F6034384
:104920009D427FF411AF74797A4D002C00F0D7834B
:1049300008F064FD0024286006E7774B9B78D906D1
:104940007FF502AF714D287801F08DF8022805D16E
:10495000747954B9AF2000F077FFF5E6287801F0BC
:1049600082F803287FF4F0AEF2E7AF2000F056FFA4
:104970000024E9E6684B9B78DA067FF5E5AE634DE7
:10498000287801F070F8022805D1747954B9AA206A
:1049900000F05AFFD8E6287801F065F803287FF484
:1049A000D3AEF2E7AA2000F039FF0024CCE65A4B40
:1049B0009B78DB067FF5C8AE544D287801F053F89C
:1049C000022805D1747954B9A92000F03DFFBBE657
:1049D000287801F048F803287FF4B6AEF2E7A92062
:1049E00000F01CFF0024AFE64B4B9B78DD067FF503
:1049F000ABAE464D287801F036F8022805D174791F
:104A000054B9A82000F020FF9EE6287801F02BF88A
:104A100003287FF499AEF2E7A82000F0FFFE0024FF
:104A200092E63D4B9B78D8067FF58EAE374D2878C1
:104A300001F019F8022805D1747954B9AD2000F0BD
:104A400003FF81E6287801F00EF803287FF47CAE9E
:104A5000F2E7AD2000F0E2FE002475E62E4B9B78D5
:104A6000D9067FF571AE294D287800F0FCFF0228A9
:104A700005D1747954B9AC2000F0E6FE64E62878DC
:104A800000F0F1FF03287FF45FAEF2E7AC2000F006
:104A9000C5FE002458E6204B9B78DA067FF554AE1D
:104AA0001A4D287800F0DFFF022805D1747954B937
:104AB000AE2000F0C9FE47E6287800F0D4FF0328B6
:104AC0007FF442AEF2E7AE2000F0A8FE00243BE601
:104AD000114B9B78DB067FF537AE0C4D287800F044
:104AE000C2FF022805D1747954B9AB2000F0ACFEA6
:104AF0002AE6287800F0B7FF03287FF425AEF2E716
:104B0000AB2000F08BFE00241EE600BF1A1F002021
:104B1000C8490020D41E0020AC490020984B9B7847
:104B2000DD067FF511AE974D287800F09CFF022836
:104B300005D1747954B9B12000F086FE04E62878D6
:104B400000F091FF03287FF4FFADF2E7B12000F001
:104B500065FE0024F8E58A4B9B78D8067FF5F4AD16
:104B6000884D287800F07FFF022805D1747954B968
:104B7000B52000F069FEE7E5287800F074FF03280F
:104B80007FF4E2ADF2E7B52000F048FE0024DBE55B
:104B90007B4B9B78D9067FF5D7AD7A4D287800F00E
:104BA00062FF022805D1747954B9B22000F04CFE9E
:104BB000CAE5287800F057FF03287FF4C5ADF2E777
:104BC000B22000F02BFE0024BEE56D4B9B78DA0688
:104BD0007FF5BAAD6B4D287800F045FF022805D16E
:104BE000747954B9B42000F02FFEADE5287800F0B8
:104BF0003AFF03287FF4A8ADF2E7B42000F00EFEE0
:104C00000024A1E55E4B9B78DB067FF59DAD5D4CF6
:104C1000207800F028FF02280ED0207800F023FF33
:104C2000032809D074793A201CB100F091FF0024C8
:104C30008AE500F0D5FF87E57479BE201CB100F04D
:104C400087FF002480E500F0CBFF7DE54C4B9B788F
:104C5000DD067FF579AD4B4C207800F004FF02288B
:104C60000ED0207800F0FFFE032809D074793B2095
:104C70001CB100F06DFF002466E500F0B1FF63E5B4
:104C80007479BD201CB100F063FF00245CE500F0E6
:104C9000A7FF59E53A4B9B78D8067FF555AD394CBF
:104CA000207800F0E0FE02280ED0207800F0DBFE35
:104CB000032809D074793C201CB100F049FF00247E
:104CC00042E500F08DFF3FE57479E32034B100F058
:104CD0003FFF2B2000F03CFF002435E500F080FF73
:104CE0002B2000F07DFF2FE5254B9B78D9067FF523
:104CF0002BAD244C207800F0B6FE02280ED0207890
:104D000000F0B1FE032809D074793D201CB100F0F9
:104D10001FFF002418E500F063FF15E57479E32018
:104D200034B100F015FF082000F012FF00240BE55D
:104D300000F056FF082000F053FF05E5104B9B786C
:104D4000DA067FF501AD0F4C207800F08CFE0228CA
:104D50000ED0207800F087FE032809D074793E2019
:104D60001CB100F0F5FE0024EEE400F039FFEBE4A6
:104D700073790BB90024E7E406F002FB0024E3E4B6
:104D8000AC4900201A1F0020954B9B78DB067FF56D
:104D9000DBAC944C207800F066FE02280ED0207820
:104DA00000F061FE032809D074793F201CB100F0A7
:104DB000CFFE0024C8E400F013FFC5E47379002B94
:104DC000D8D006F0C9FA0024BEE4854B9B78DD06F6
:104DD0007FF5BAAC834C207800F045FE02280ED057
:104DE000207800F040FE032809D0747940201CB1DF
:104DF00000F0AEFE0024A7E400F0F2FEA4E4747913
:104E0000AC201CB100F0A4FE00249DE400F0E8FEFC
:104E10009AE4734B9B78D8067FF596AC714C20785A
:104E200000F021FE02280ED0207800F01CFE03289E
:104E300009D0747941201CB100F08AFE002483E47B
:104E400000F0CEFE80E47479AE201CB100F080FE4C
:104E5000002479E400F0C4FE76E4614B9B78D90627
:104E60007FF572AC5F4C207800F0FDFD02280ED07B
:104E7000207800F0F8FD032809D0747942201CB195
:104E800000F066FE00245FE400F0AAFE5CE47479A2
:104E9000AB201CB100F05CFE002455E400F0A0FE45
:104EA00052E44F4B9B78DA067FF54EAC4D4C2078A0
:104EB00000F0D9FD02280ED0207800F0D4FD0328A0
:104EC00009D0747943201CB100F042FE00243BE479
:104ED00000F086FE38E47479A8201CB100F038FE9A
:104EE000002431E400F07CFE2EE43D4B9B78DB0691
:104EF0007FF52AAC3B4C207800F0B5FD02280ED09F
:104F0000207800F0B0FD032809D0747944201CB14A
:104F100000F01EFE002417E400F062FE14E4747931
:104F2000AA201CB100F014FE00240DE400F058FE8D
:104F30000AE42B4B9B78DD067FF506AC294C2078E4
:104F400000F091FD022810D0207800F08CFD03289D
:104F50000BD07479452024B100F0FAFD0024FFF74E
:104F6000F3BB00F03DFEFFF7EFBB7479A92024B13D
:104F700000F0EEFD0024FFF7E7BB00F031FEFFF785
:104F8000E3BB174B9B78D8067FF5DEAB164B1B783F
:104F900013F00A057FF4D8AB7479352024B100F002
:104FA000D7FD2C46FFF7D0BB00F01AFEFFF7CCBBB5
:104FB0000B4B9B78D9067FF5C7AB0B4B1B7813F0D7
:104FC0000A057FF4C1AB7479292024B100F0C0FD3B
:104FD0002C46FFF7B9BB00F003FEFFF7B5BB00BFDF
:104FE000AC4900201A1F00201E1F00207579DDB17A
:104FF00001F06CFC10F0220F3FF4A6AB0122C04B75
:10500000C04C1A7001F062FC00F02200207001F028
:105010006BFC462000F002FC01F01CFD207801F042
:105020005BFC0024FFF790BBB54B1A78002A3FF4D5
:105030008BAB46201D702C4600F006FC01F00AFDEB
:10504000FFF782BB737913B90024FFF77DBBAE4D28
:105050000024AB7883F01002C2F3001262F3041351
:10506000AB70286801F097FDF0238DF80830AB781D
:1050700004AAC3F300138DF80930052300921946E2
:1050800002AA0F20ADF80A408DF80C4004948DF868
:10509000144002F0EBFEFFF757BB73799B4A23B134
:1050A00001211C461170FFF74FBB1370FFF74CBB7B
:1050B0007579002D3FF448AB01F052FD2C4608F005
:1050C000EBF9FFF741BBFDF7B7F804460028BBD169
:1050D0007379002BB8D0FEF791FFFFF735BB2C603A
:1050E000FFF732BB7379002B3FF42EAB06F05CF96F
:1050F000D6287FF629ABFFF795FAFFF725BB737922
:10510000002B3FF421AB06F04FF95F283FF61CABB4
:10511000F1E77579002D3FF417AB05F0EFFF00F0D4
:1051200013FB30B14FF0804320229A614FF480721C
:105130009A6106F0B3F895287FF606AB06F0AEF854
:1051400000F11E039BB2962B28BF9623DBB28DF88D
:1051500010308DF811308DF81230FA2202233620EB
:105160000499FFF72DFA2C46FFF7EEBA7579002D5A
:105170003FF4EAAA06F092F81E283FF6E5AA0024BA
:10518000002320461A461946013404F043F9442C02
:10519000F6D106F083F800F11E039BB2962B28BFD0
:1051A0009623DBB28DF810308DF811308DF8123067
:1051B000FA22022342200499FFF702FA2C46FFF755
:1051C000C3BA7379002B3FF43FAF00210E20FFF7E5
:1051D0009DFAFF234E4C8DF810308DF811308DF86C
:1051E0001230FA2203230F200499FFF7E9F92078FF
:1051F00000F039FC022808D1002000F0EDFB00206F
:1052000001F00BF80024FFF79FBA207800F02BFC88
:105210000328F7D1F0E77379002B3FF415AF002195
:105220000F20FFF773FAFF23394C8DF810308DF8FB
:1052300011308DF81230FA2203230E200499FFF763
:10524000BFF9207800F00FFC02280AD0207800F087
:105250000AFC032805D0022000F0BEFB002000F06D
:10526000DCFF0024FFF770BA7379002B3FF46CAABF
:1052700005F0AAFF1D287FF467AA1F2005F0A0FFF4
:105280000024FFF761BA224D287800F0ECFB0228D9
:1052900011D1204B1B78DA067FF556AAFCF7CCFF1C
:1052A00000287FF451AA7579E3205DB100F0B6FAC9
:1052B0002C46FFF749BA287800F0D5FB03287FF485
:1052C00043AAE6E700F0C0FAFFF73EBA287800F0FC
:1052D000CAFB03287FF438AAFFF7DCBA00F0B4FA5F
:1052E000FFF732BA084B0C4A1B78002413F00E0368
:1052F00018BF737903F001031370FFF725BA00BFDD
:10530000FC1E0020FD1E0020AC490020DC1E0020F9
:105310001A1F0020C849002034400020F8B500259D
:105320002E461D4C237873B1606808F01CF8A36802
:10533000984212D308F062F8E36860604BB9636981
:1053400026706660C3B90135632D04F11804E9D1F4
:10535000F8BD013BE360002BF1D0E368207C13F043
:10536000010311D0FF28677CA17CE37C07D11A469A
:10537000384604F087F9E6E7E8B29847E3E70A46DB
:10538000394604F047F8DEE7FF281A4602D11946ED
:105390001846EEE71946F4E7604000207FB500F0BC
:1053A000D3F9A0B1042200210DF10900FBF7E4F9C3
:1053B000002204AB04928DF814200093DD22052313
:1053C0008DF8082019460F2002AA02F04FFD002296
:1053D0000B4B1A7001F00EFC03F0E4FF094801F0DA
:1053E000D0FBFFF754F940B108F008F8FDF71AF8C0
:1053F00007B05DF804EBFEF771BB07B05DF804FB86
:10540000970C0020C849002073B505F047FF00F154
:105410001E04A4B2962C28BF9624754BE4B21E78C5
:10542000A6B1002496238DF804408DF806308DF83F
:105430000540019803F008FAC0F30742C0F30721C2
:10544000C0B204F01FF9204602B070BD694D286853
:1054500040B107F088FF40F6B833984202D9FFF711
:105460009DFF2E6007F062FD810705D500232146D0
:105470001A46022003F0CEFF5F4D287800F0F3FAC1
:1054800002280ED0287800F0EEFA032809D05B4BF2
:105490001B78DA0605D5002321461A46012003F0C1
:1054A000B9FF574DFEF7B4FF2B7863B9554E3068FE
:1054B00007F059FFB0F5FA6F16D901232B7007F0EA
:1054C0009DFF306010E0504B1B786BB9FCF7B4FEC9
:1054D00038B9FEF7F1FFFFF717F807F08FFF494BD8
:1054E00018602B78002BE1D0FFF718FF474B9B7813
:1054F000DB0609D51625002328461A462146013524
:1055000003F088FF232DF6D1414B186898BB012387
:10551000404E414D3278FF2A45D133702B78FF2B16
:105520004AD032789A4247D03C4B186807F01BFFAC
:10553000B0F5166F2CBF0025012507F05FFF4FF473
:105540004873B0FBF3F2367802FB1300B6BB75B1BB
:10555000B0F5C87F0BD2334622463146042003F013
:1055600059FF334622463146402003F053FFFCF7F3
:1055700099FE012068E707F0F6FEB0F5FA6FC6D293
:1055800000F0E2F858B1FDF785F940B9244B254AFF
:105590001B781278003B18BF01239A4201D10023E7
:1055A000B6E70223B4E79A42B8D033702A7007F006
:1055B00025FF1A4B1860B1E70025BEE715B1B0F51D
:1055C000C87FD4D2012E09D1002321461A460420D7
:1055D00003F020FF00231A462146C5E76508002393
:1055E0002A462146042003F015FF00232A46F3E74C
:1055F000FE1E0020D41E00201A1F0020C8490020D3
:10560000970C0020C81E0020DD1E0020AC490020A1
:10561000EC1E0020990C0020980C0020F01E0020A9
:10562000E41E0020D01E002038B51C460B780D4625
:10563000CC2B41D006D8AA2B15D0BB2B33D0552B61
:1056400009D038BDF02B3ED0F12B43D0DD2BF8D163
:10565000FFF7A4FE04E0002289786878FDF764F87B
:1056600000232370EDE7214B1B7813F00E0F0DD0B4
:1056700004224FF480614FF080400AF0B1FD042213
:105680004FF400714FF080400AF0AAFD0023237010
:105690006B78174A003B18BF012301201370BDE847
:1056A0003840FDF7FFBA4FF400124FF080439A6183
:1056B0004FF080729A61D3E720224FF080439A61C5
:1056C0004FF48072F6E7094B49789A7861F3041237
:1056D0009A70C5E707F092FE064B6A781860064B91
:1056E0001A70064B1B786370BAE700BFAC49002004
:1056F000F41E0020EC1E0020E41E0020D01E00201E
:1057000008B5104B00209A78197802F00702C1F30F
:105710004201FCF7EBFE41F2883009F098FA00F004
:1057200013F805F0BBFD4FF0804328B120229A61A9
:105730004FF480729A6108BD4FF400129A614FF0E5
:105740008072F7E7AC49002010B5054C00222046D6
:105750004FF400710AF044FD2069C0F3402010BDF1
:105760000004004003280DD80B290BD8082A09D8BB
:105770006C2301EBC10103FB0011034B0A4433F816
:105780001200704701207047D4120108032808D87E
:1057900039B9054B82F0010202EB400033F81000EA
:1057A00070470120704700BFC4120108A0F5807344
:1057B000B3F5F85F10B526D210F4805F00F4807363
:1057C00000F4007400F4806100F400620DD0002B3E
:1057D0000CBF002010200CB140F0200009B140F0B7
:1057E00040000AB140F0800010BD181E18BF012013
:1057F0000CB140F0020009B140F00400002AF3D0DF
:1058000040F00800F0E70020EEE710B50C46FFF787
:10581000CDFF2346BDE8104018470000A0F1E0038B
:10582000072B10B5044600D940B920460449FFF7BC
:10583000ECFFE0B2BDE8104000F08AB90149F6E79C
:10584000A15C0008C960000810B50446C0B200F0B1
:10585000C7F9A4F1E003072B00D92CB9034920466E
:10586000BDE81040FFF7D1BF0149F8E7B35C00087D
:10587000DB600008012070470120704708B5FFF782
:10588000FBFF08BD0120704701207047704770473B
:1058900008B5FFF7FCFF08BD01207047704770474F
:1058A00013B502AB03E903000F4B1B78B3B99DF8A6
:1058B000053073B16AB100F063FD044601460098FB
:1058C00000F01CFD2046009902B0BDE8104001F038
:1058D000DBBB009800F034FD0446F3E7009800F0CD
:1058E0004FFD0099F0E700BF191F0020034610B4D8
:1058F00000885C880A4640EA0440998810BCFFF79B
:10590000CFBF10B504460121FFF7F0FF2146FFF796
:10591000B1FF30B101212046FFF7E8FF2146FFF734
:10592000ADFF00F0010010BD38B500210446FFF7BF
:10593000DDFF05462146FFF7A9FF21462846FFF770
:10594000A7FF38BD38B501210446FFF7CFFF214638
:105950000546FFF797FFB8B321462846FEF7ECFE51
:1059600090B32146284607F067F868B321462846D9
:1059700006F070FF40B32146284606F091FA18B3AE
:105980002146284606F066FAF0B12146284602F084
:1059900047FEC8B12146284602F08CFEA0B1214640
:1059A000284606F0A5FF78B12146284601F0B4FC50
:1059B00050B12146284601F0BFFC28B121462846B7
:1059C000BDE8384001F0D4BC002038BD012303FA03
:1059D00000F0C0B200F0F3BB10B504460120A040B7
:1059E000C0B201F0CCF82046BDE81040FFF7EEBF92
:1059F0000120704708B5FFF7FBFF08BD10B504464E
:105A000000F08CFB2046FFF747FF2046FFF7F2FF30
:105A100010BD08B50120FFF7F1FFBDE8084007F011
:105A20003BBD08B50020FFF7E9FFBDE8084007F0DF
:105A300059BD08B5FFF732FFFEF745F905F046FA04
:105A400000F033F8BDE80840012005F00FBB08B5B1
:105A500000F030F8002005F009FBFFF720FFBDE85B
:105A60000840FEF7F2B8034600091CBF03460420B5
:105A70009A081EBF13460230C0B25B081CBF01303B
:105A8000C0B2704701207047704738B50546FFF730
:105A9000F9FF044610B12846FFF7F6FF204638BD4F
:105AA000704708B5FFF7F1FF08BD08B50020FFF704
:105AB000F8FF08BD08B507F023FAFFF7F2FF08BDAD
:105AC00010B507F01DFA074B04461A78824207D03A
:105AD000187007F093FC044B18602046FFF7E1FFB5
