:020000040800F2
:1000000000040020B9010008BB010008BB01000882
:10001000BB010008BB010008BB010008BB010008D0
:10002000BB010008BB010008BB010008E1ED0008AE
:10003000BB010008BB010008BB0100086B020108FE
:10004000BB010008BB010008BB010008BB010008A0
:10005000BB010008BB0100085DFF000885FF000828
:10006000ADFF0008D5FF0008FDFF0008BB01000838
:10007000BB010008BB0100089D090108BB01000885
:1000800025000108BB010008BB010008BB010008F6
:10009000BB010008BB010008BB010008BB01000850
:1000A000BB010008BB010008890501089D05010886
:1000B000BB010008BB01000875030108BB01000873
:1000C0008903010889000108BB010008BB01000881
:1000D000BB010008BB010008BB010008BB01000810
:1000E00072B6264880F30888254880F30988254899
:1000F00025490860022080F31488BFF36F8F0EF04B
:1001000043FB0DF09BFE4FF0553020491B4A9142B6
:100110003CBF41F8040BFAE71D49194A91423CBF24
:1001200041F8040BFAE71B491B4A1C4B9A423EBF9D
:1001300051F8040B42F8040BF8E700201849194A5B
:1001400091423CBF41F8040BFAE70EF021FB0EF0A0
:100150001CFB154C154DAC4203DA54F8041B8847C0
:10016000F9E707F0A9FE124C124DAC4203DA54F83D
:10017000041B8847F9E70EF009BB000000040020CB
:10018000000C00200000000808ED00E00000002046
:1001900000040020FC1B0108000C00200C140020AF
:1001A00010140020A44F0020E0000008E000000828
:1001B000E0000008E000000892E700F000F8FEE729
:1001C0002DE9F04FC1F80CD0C3689D46BDE8F08F13
:1001D000002383F311882846A04700200EF006FD77
:1001E000FEE70EF037FC00DFFEE7000053B94AB926
:1001F000002908BF00281CBF4FF0FF314FF0FF302F
:1002000000F08AB9ADF1080C6DE904CE00F01AF8DF
:10021000DDF804E0DDE9022304B07047430803F091
:100220005533C01A830803F0333300F033301844D9
:1002300000EB101000F00F3000EB002000EB00404E
:10024000000E70472DE9F047089E0D46044688468B
:10025000002B4DD18A42944668D9B2FA82F252B14B
:1002600001FA02F3C2F1200120FA01F10CFA02FCBA
:1002700041EA030894404FEA1C41B8FBF1F71FFA2A
:100280008CFE01FB178807FB0EF0230C43EA0843A2
:1002900098420AD91CEB030307F1FF3580F01E8159
:1002A000984240F21B81023F63441B1AB3FBF1F0FA
:1002B00001FB103300FB0EFEA4B244EA0344A64542
:1002C0000AD91CEB040400F1FF3380F00981A64534
:1002D00040F20681644402380021A4EB0E0440EA97
:1002E00007401EB10023D440C6E90043BDE8F087B3
:1002F0008B4208D9002E00F0EE800021C6E90005EF
:100300000846BDE8F087B3FA83F100294AD1AB4231
:1003100002D3824200F2FC80841A65EB03030120C1
:100320009846002EE2D0C6E90048DFE702B9FFDEBA
:10033000B2FA82F2002A40F09180A1EB0C00012178
:100340004FEA1C471FFA8CFEB0FBF7F307FB1300C4
:10035000250C45EA00450EFB03F0A84208D91CEB2A
:10036000050503F1FF3802D2A84200F2CE804346D1
:100370002D1AB5FBF7F007FB10550EFB00FEA4B2DB
:1003800044EA0544A64508D91CEB040400F1FF35F6
:1003900002D2A64500F2B6802846A4EB0E0440EA3D
:1003A00003409EE7C1F120078B4022FA07FC4CEA8C
:1003B000030C25FA07FA4FEA1C49BAFBF9F820FAB0
:1003C00007F309FB18AA8D401FFA8CFE1D4300FAA3
:1003D00001F308FB0EF02C0C44EA0A44A04202FA96
:1003E00001F20BD91CEB040408F1FF3A80F088807D
:1003F000A04240F28580A8F102086444241AB4FBAC
:10040000F9F009FB104400FB0EFEADB245EA0444CE
:10041000A64508D91CEB040400F1FF356CD2A645B3
:100420006AD90238644440EA0840A0FB0295A4EB74
:100430000E04AC42C846AE4656D353D0002E69D007
:10044000B3EB080264EB0E0422FA01F304FA07F797
:100450001F43CC40C6E90074002147E70CFA02FCB8
:10046000C2F1200125FA01F34FEA1C4720FA01F1FD
:1004700095400D43B3FBF7F107FB11331FFA8CFED8
:10048000280C40EA034001FB0EF3834204FA02F415
:1004900008D91CEB000001F1FF382FD283422DD97F
:1004A00002396044C01AB0FBF7F307FB1300ADB28A
:1004B00045EA004503FB0EF0A84208D91CEB0505F0
:1004C00003F1FF3816D2A84214D9023B6544281A1A
:1004D00043EA014138E73146304607E72F46E4E674
:1004E0001846F9E64B45A9D2B9EB020865EB0C0EAC
:1004F0000138A3E74346EAE7284694E74146D1E7B7
:10050000D0467BE76444023847E7023B65442FE767
:10051000084606E73146E9E6704700BF062008B501
:1005200000F08AFA01200FF08FFB00BF032A10B5FC
:1005300016D940EA010C1CF0030F04460B4622D1E9
:1005400019462046D1F800E0D0F800C00433F44545
:1005500004F1040417D1043A032A20461946EFD8BF
:10056000541EA2B100F1FF3C013901E0C3180CD0C8
:100570001CF801EF11F8012FA4EB0C039645F5D000
:10058000AEEB020010BD541EECE7184610BD10463D
:1005900010BD00BF844641EA000313F0030349D1B4
:1005A000403A23D30B6803604B6843608B688360D9
:1005B000CB68C3600B6903614B6943618B698361DD
:1005C000CB69C3610B6A03624B6A43628B6A8362C5
:1005D000CB6AC3620B6B03634B6B43638B6B8363AD
:1005E000CB6BC36340304031403ADBD230320BD367
:1005F0000B6803604B6843608B688360CB68C360A3
:1006000010301031103AF3D20C3205D351F8043BBC
:1006100040F8043B043AF9D2043208D0D2071CBF98
:1006200011F8013B00F8013B01D30B8803806046C1
:10063000704700BF082A13D38B07B1D010F0030313
:10064000AED0C3F10403D21ADB071CBF11F8013B83
:1006500000F8013BA4D331F8023B20F8023B9FE7AE
:10066000043AD9D3013A11F8013B00F8013BF9D221
:100670000B7803704B7843708B78837060467047BB
:1006800088420DD98B1883420AD900EB020CBAB10B
:10069000624613F801CD994202F801CDF9D17047B5
:1006A0000F2A0ED8034602F1FF3C4AB10CF1010CAF
:1006B000013B8C4411F8012B614503F8012FF9D15E
:1006C000704740EA01039B074FD1A2F1100370B5B8
:1006D00001F1200C23F00F0501F1100E00F11004C0
:1006E000AC441B095EF8105C0EF1100E44F8105C6F
:1006F0005EF81C5C103444F81C5C5EF8185C44F82E
:10070000185C5EF8145CE64544F8145CEAD10133E9
:1007100012F00C0F01EB031102F00F0400EB0313B6
:1007200027D08E46043C24F003064FEA940C1E4466
:100730001C1F5EF8045B44F8045FB442F9D10CF16D
:10074000010402F0030203EB840301EB840102F1D4
:10075000FF3C4AB10CF1010C013B8C4411F8012B18
:10076000614503F8012FF9D170BD034602F1FF3C4A
:100770009CE72246EBE700BF830730B548D0541E04
:10078000002A3FD00346CAB201E0013C3AD303F845
:10079000012B9D07F9D1032C2DD9CDB245EA0525B2
:1007A0000F2C45EA054536D9A4F1100222F00F0CB2
:1007B00003F1200EE6444FEA121C03F1100242E955
:1007C000045542E9025510327245F8D10CF101028C
:1007D00014F00C0F03EB021204F00F0C13D0ACF169
:1007E000040323F003030433134442F8045B9342ED
:1007F000FBD10CF003042CB1CAB21C4403F8012B4A
:100800009C42FBD130BD64461346002CF4D1F9E77D
:1008100003461446BFE71A46A446E0E738B5124B34
:1008200004461D68AA6B1AB10023C2E9044338BD0F
:10083000182000F02DFA0246A86378B100210B239E
:1008400001209381C2E90401084B0949094DC2E91D
:10085000011300231560C2E9044338BD4221064B51
:10086000064800F0CDF900BF000C0020ECDE0500CA
:1008700034126DE60E33CDAB2C1B0108441B01086E
:1008800038B5194B1C68A26B8AB1136917495469B2
:1008900003FB01F1164800FB0411A3FB00300133F8
:1008A00041EB0001C2E9043121F0004038BD1820BD
:1008B00000F0EEF90246A06388B1012400250B2365
:1008C0000A480C49C2E90445116001460A4D0B4C27
:1008D00093810B4BC2E90154C2E9043138BD4E216A
:1008E000084B094800F08CF9000C00202DF45158F9
:1008F0002D7F954C0E33CDAB34126DE6ECDE05004A
:100900002E7F954C2C1B0108441B010838B5446C04
:100910000CB1002038BD8021054600F02FFA0246B8
:10092000686430B1031F7C3243F8044F9342FBD11B
:10093000EFE74FF0FF3038BD1F29F8B5054608D85E
:10094000466C0C4617464EB156F8240046F8247003
:10095000F8BD16234FF0FF302B60F8BD802100F06A
:100960000DFA0646686440B10021031F00F17C05C2
:1009700043F8041F9D42FBD1E6E74FF0FF30F8BD7E
:100980001F2938B5054620D8426C0C466AB152F88A
:10099000213053B1012B16D0591C10D00025204610
:1009A00042F824509847284638BD284600F0F8F809
:1009B000224601462846BDE8384000F0DDB816233F
:1009C00001202B6038BD002038BD16234FF0FF30CA
:1009D0002B6038BD1F292BD8426C38B50C46054614
:1009E00082B152F8243002EB84024BB1591C1AD068
:1009F000012B16D00025204615609847284638BDA3
:100A0000012038BD802100F0B9F90246686460B168
:100A10000020131F02F17C0143F8040F9942FBD11F
:100A2000DFE7032038BD022038BD4FF0FF3038BD6E
:100A30004FF0FF30704700BF38B5144B1F281D68BA
:100A40001FD86A6C044662B152F820304BB1012BBA
:100A500015D0591C0FD0002542F820509847284641
:100A600038BD284600F09CF8224601462846BDE8DD
:100A7000384000F081B8162301202B6038BD0020DB
:100A800038BD16234FF0FF302B6038BD000C00201E
:100A9000124B1F2870B51E6808D80D46716C0446AD
:100AA00049B151F8240041F8245070BD16234FF08D
:100AB000FF30336070BD8021304600F05FF90146A1
:100AC000706440B10022031F00F17C0C43F8042F36
:100AD0006345FBD1E5E74FF0FF3070BD000C00200F
:100AE00038B50B4B1D686C6C0CB1002038BD8021F3
:100AF000284600F043F9686438B1031F00F17C0216
:100B000043F8044F9342FBD1EFE74FF0FF3038BD7D
:100B1000000C002038B5174B1F281D6827D86A6CB9
:100B2000044682B152F8243002EB84024BB1591CC6
:100B30001BD0012B17D0002520461560984728466A
:100B400038BD012038BD8021284600F017F9024643
:100B5000686460B10020131F02F17C0143F8040FA8
:100B60008B42FBD1DEE7032038BD022038BD4FF0B9
:100B7000FF3038BD000C002070B50026074D04463C
:100B8000084611462E600FF067F8431C00D070BD78
:100B90002B68002BFBD0236070BD00BF1814002011
:100BA0000FF062B820F0030110F00300C0F1000064
:100BB00051F8043B00F1040C4FEACC0C6FF000023A
:100BC0001CBF22FA0CF213434FF0010C4CEA0C2C20
:100BD0004CEA0C4CA3EB0C0222EA030212EACC1200
:100BE00004BF51F8043B0430F4D0C2F1000102EA22
:100BF0000102B2FA82F2C2F11F0200EBD20070478A
:100C0000144600B51A460A4B0D461B6885B0DE68CF
:100C100003464CB1074901913046074902940095BB
:100C200000F022F8FFF77AFC04490C46F3E700BF16
:100C3000000C0020781B0108881B0108841B010898
:100C400008B513460022FFF7DBFF00BF0CB400B568
:100C500083B004AB53F8042B019300F025F903B0E3
:100C60005DF804EB02B070470EB400B5074A82B0DD
:100C700003AB0146106853F8042B019300F014F9FC
:100C800002B05DF804EB03B0704700BF000C002019
:100C9000024B0146186800F071B800BF000C00203C
:100CA000024B0146186800F003B800BF000C00209A
:100CB000002952D038B551F8043C0C1F002BB8BFA6
:100CC000E418054601F0AEF92B4A1368002B45D015
:100CD000A3420CD921686018834228D0636028465B
:100CE0001460BDE8384001F09FB9A3420FD81A46FE
:100CF0005B68002BF9D11168501884421DD034D3A1
:100D0000636054602846BDE8384001F08DB9116831
:100D10005018A04215D028D8216860188342EFD11E
:100D200018685B680144C4E900135460EAE7186876
:100D30005B680144C4E90013D1E7236819441160DA
:100D4000E0E720680144501883421160DAD1D3E90A
:100D500000030144C2E90013D4E7704728466360EA
:100D60001460BDE8384001F05FB90C2328462B60C1
:100D7000BDE8384001F058B910140020F8B5CD1C7A
:100D800025F0030508350C2D38BF0C25002D06462F
:100D900023DBA94221D8264F01F044F93A6822B357
:100DA000144603E063682246FBB11C4623685B1BC4
:100DB000F8D40B2B15D8636894420CBF3B6053608A
:100DC000304601F031F904F10B00231D20F007003B
:100DD000C21A01D01B1AA350F8BD0C2300203360A7
:100DE000F8BD23601C442560EAE77968D1B1294643
:100DF00030460EF01BFF431C01460CD0C41C24F0EF
:100E00000304A04205D03046611A0EF00FFF0130F6
:100E100001D02560D4E70C233046336001F004F99B
:100E20000020F8BD30460EF001FF7860DFE700BF1C
:100E3000101400209368013B002B936005DAD2F870
:100E400018C0634507DB0A2905D01368581C1060D9
:100E500008461970704700F069BB00BF9BB1F8B538
:100E6000134406460F46541E5D1E01E0AC4208D0F6
:100E70003A46304614F8011FFFF7DCFF431CF5D15A
:100E8000F8BD0020F8BD0020704700BF936810B582
:100E9000144613B91846536010BD00F031FE00230C
:100EA000C4E9013310BD00BF2DE9F04F0E46924654
:100EB0001C4607469FB018B18369002B00F0A8803C
:100EC000954B9E4200F0AA80944B9E4200F0B58064
:100ED000934B9E4208BFFE68B389180740F1A38078
:100EE0003369002B00F09F80002320220B933023D6
:100EF0009AF80010059401258A4C8DF831208DF860
:100F0000323000297DD0D1460B4604E019F8013F6C
:100F1000002B00F09480252BF8D1B9EB0A0B40F0A0
:100F2000918099F80030002B6BD000234FF0FF32F6
:100F300009F10109CDE90723069309938DF85B3088
:100F40001C9304E0001B05FA00F018430690CA4603
:100F50000522204619F8011B01F01CF8069B002809
:100F6000F0D1D90644BF20228DF85B201A0748BF74
:100F70002B229AF8001048BF8DF85B202A2972D1E5
:100F8000059A1168043200290592C0F2A0800991E7
:100F90009AF801100AF1010A2E2976D0DFF888911B
:100FA0000322484600F0F6FF48B14022069BA0EB22
:100FB000090002FA00F003430AF1010A06931AF845
:100FC000011B062259488DF8301000F0E3FF00287D
:100FD00000F08380564B002B6CD005A9009132465F
:100FE0003846544B06A9AFF300800390039B0133AE
:100FF00007D00B9B039A9AF8001013440B93002917
:1010000081D1B3895B0615D40B981FB0BDE8F08F72
:1010100000F056FD404B9E427FF456AF7E68B38988
:1010200018073FF55DAF3146384600F0E1FA002879
:101030003FF45AAF4FF0FF30E7E7BE684CE7B9EB3B
:101040000A0BDED0D046CAF1010A03E0934538D935
:1010500018F8011F32463846FFF7ECFE01300AEB64
:101060000802F3D1CDE7A1F13002092A94D8099BF7
:101070001AF8011F03EB830302EB4303A1F13002D3
:10108000092AF5D92E29099388D19AF801102A291D
:101090002DD1059B0AF102001A680433002A05933A
:1010A000B8BF4FF0FF339AF8021007928246B8BFDC
:1010B000079373E7059B073323F007030833059372
:1010C00097E70B9A99F800305A440B922BE7494264
:1010D00043F00203099106935AE705A900913246AD
:1010E0003846144B06A900F0CBF803907EE70023A6
:1010F000A1F13002092A0AF1010A07933FF64EAF27
:101100001AF8011F03EB830302EB4303A1F1300242
:10111000092AF5D9079341E7C8100108A81001086A
:1011200088100108B81B0108C01B0108C41B010876
:10113000000000005D0E00088C4600B58646134690
:10114000034A714610685DF804EB6246FFF7ACBED7
:10115000000C00202DE9F04791461E460A698B6875
:101160000C469A42B8BF1A46C9F8002091F843309D
:101170000546DDF8208013B10132C9F8002022684D
:1011800091065DD5D9F800300233C9F800302268E5
:1011900012F0060F11461ED1E168CB1A002BD8BF02
:1011A000114618DD002704F1190A06E0D9F80030CD
:1011B000E268A2EB030CBC450CDD0123524631462C
:1011C0002846C047013007F10107EFD14FF0FF304B
:1011D000BDE8F087216894F84330003B18BF012335
:1011E0008A060AD53021E21882F8431094F8451097
:1011F0005A1C2244023382F843103146284604F137
:101200004302C0470130E1D0236803F00603042BFA
:101210001DD0A3682269934225DD00279B1A1F4435
:1012200004F11A09002401E0BC421CDA01234A46F9
:1012300031462846C047013004F10104F4D1C5E726
:1012400012F0060F12D0003B18BF0123D5E7D9F8E2
:101250000030E1682269C91AA36821EAE177934264
:10126000DCDC0029DCDC0020BDE8F087E168D9F88F
:101270000030CB1A002BD8BF114693DCABE700BF80
:101280002DE9F04317460A7E85B00C46064698467F
:101290000C9D01F1430C002A33D0A2F15803D9B2BE
:1012A000202967D8202B65D8DFE813F0DD00640023
:1012B000640064006400640064006400640064000E
:1012C0006400A3006E0064006400640064006E00AB
:1012D000640064006400640021007F00BF006400BB
:1012E0006400AE0064007F0064006400E4002368D2
:1012F0001A0640F102812B686269191D29601B687A
:101300001A600023E14623613B4621463046CDF872
:10131000008003AAFFF71EFF013020D04A4639465D
:1013200030462369C047013019D02368E0689B0725
:10133000039919D5431A002B16DD002504F119096C
:1013400004E0E0680399431AAB420DDD01234A46ED
:1013500039463046C047013005F10105F1D14FF063
:10136000FF3005B0BDE8F0838842B8BF084605B03D
:10137000BDE8F083012384F8422004F1420923618F
:10138000002384F84330BFE72368190602D45A06C5
:1013900000F1BF8029680A68043129601146002ADB
:1013A0006ADB0A25DFF87CE110E02368180640F1CB
:1013B0009A802B68191D296019686F2A0CBF0825AF
:1013C0000A25DFF860E1002384F843306268002AD0
:1013D000A2607DDB236823F004032360002959D138
:1013E000002A77D1E146082D63D0ACEB09032361D5
:1013F0008AE701222B6804F14209196804332B6043
:1014000084F842102261BBE72B6800211A1D2A6074
:10141000D3F800906268484600F0BCFD00287FD0F9
:10142000A0EB090060602061AAE7236843F0200375
:1014300023607822DFF8F0E084F845202A68111D47
:101440002960190642D45D0640D51188D80744BFEB
:1014500043F020032360002943D12368102523F0A3
:1014600020032360AFE75823DFF8B8E084F8453065
:101470002368E3E72368DCE72D2284F843206268D1
:101480004942002AA26002DB23F0040323600A25FC
:10149000DFF890E0E146B1FBF5F30A4605FB1310D7
:1014A00019461EF80030AA4209F8013DF3D2082D72
:1014B0009BD12368D90798D5626823699A4294DC46
:1014C000302309F1FF3989F800308EE71168BDE754
:1014D0000029DFD19EF8003004F1420984F842303F
:1014E00081E710256FE713F0400F2B6803F104012B
:1014F00029600CBF196819885FE713F0400F2B684B
:10150000626903F1040129601B6814BF1A801A6024
:10151000F7E62A68B2F9001004322A600A463EE76C
:10152000606880E7CC1B0108E01B0108F8B506469F
:101530000D46144608B1836943B3254B9C422AD01B
:10154000244B9C4229D0244B9C4208BFF468A269DA
:10155000A389A2601A0722D5236903B322686169AF
:10156000D31AEDB299422F4629DD0133A168013922
:10157000A160511C2160157062699A4216D0A3893E
:10158000DB0701D50A2D11D03846F8BD00F098FAD6
:101590000F4B9C42D4D17468D9E7B468D7E7214691
:1015A000304600F025F838B92369D7E721463046A0
:1015B00000F024F90028E7D04FF0FF37E4E7214698
:1015C000304600F01BF90028F6D101232268CDE750
:1015D000C8100108A81001088810010803460A462F
:1015E000024908681946FFF7A1BF00BF000C0020A0
:1015F0003C4B70B51D6806460C460DB1AB69E3B1B6
:10160000394B9C421FD0394B9C424DD0384B9C42A9
:1016100008BFEC68B4F90C3018079AB219D52169E3
:1016200011B312F001002FD000256069A56040427F
:10163000A06100292ED0002070BD284600F040FA9D
:10164000294B9C42DFD16C68B4F90C3018079AB270
:10165000E5D4D1063ED5520728D4216943F00803CA
:10166000A3819AB20029DCD102F42070B0F5007F8A
:10167000D7D02146304600F0FFFBB4F90C30216989
:101680009AB212F00100CFD1950758BF6069A060EF
:101690000029D0D1120658BF0846CDD543F04003EB
:1016A0004FF0FF30A38170BDAC68B3E7616B51B1FF
:1016B00004F14402914204D03046FFF7F9FAB4F93C
:1016C0000C30002262630022216923F02403C4E964
:1016D0000012C3E7092243F0400332604FF0FF30AD
:1016E000A38170BD000C0020C8100108A8100108DB
:1016F00088100108F8B58B890C46190707463BD4BA
:101700006268002A55DDE66A002E50D000223D684E
:101710003A6013F4805250D101233846216AB04711
:10172000421C5CD0A389E66A5B0705D56368C01AD2
:10173000636B0BB1236CC01A0246216A0023384642
:10174000B047411C3BD13B68002B38D01D2B01D04A
:10175000162B4BD100232269C4E90023616B3D6045
:1017600029B304F14403994202D03846FFF7A0FAA6
:10177000002318466363F8BD2669C6B19A0718BFEF
:101780000023256808BF63692660AD1BA3600CE0D9
:101790002B463246D4F828C03846216AE047B0F1DB
:1017A000000CA5EB0C05664412DD002DF0DC0020DA
:1017B000F8BD226C002AA6DCF9E7606DB4E70022D0
:1017C000236962602360A389DB04C7D56065C5E730
:1017D000A3894FF0FF3043F04003A381F8BD3B687D
:1017E000002B9FD01D2B06D0162B04D0A38943F0CD
:1017F0004003A381F8BD00203D60F8BD38B50B69FA
:10180000BBB10C46054608B18369B3B10D4B9C4290
:1018100011D00D4B9C4213D00C4B9C4208BFEC687E
:10182000B4F90C302BB121462846BDE83840FFF70B
:1018300061BF002038BD6C68F2E700F041F9E5E7D0
:10184000AC68EDE7C8100108A8100108881001086D
:1018500038B540B303690446E3B1174B1D680DB1B9
:10186000AB69CBB1154B9C420FD0154B9C4221D09C
:10187000144B9C4208BFEC68B4F90C3053B12146BC
:101880002846BDE83840FFF735BF6C68B4F90C3026
:10189000002BF4D1002038BD284600F011F9074B89
:1018A0009C42E2D1F1E7084B08491868BDE838408E
:1018B00000F0BEBAAC68DFE7000C0020C8100108D9
:1018C000A81001088810010884100108FD170008FD
:1018D00000207047014900F0ABBA00BFFD170008B7
:1018E00000207047682270B54D1E02FB05F50E46BC
:1018F00005F17401FFF742FA044640B100210C30B3
:10190000C4E9016005F168022160FEF735FF204659
:1019100070BD00BF274B2DE9F0411E680746B36933
:1019200053B34FF004084836D6E90134013B04D5DF
:101930001EE05A1C04F168041AD0B4F90C50013BA3
:10194000002DF6D11C4B08222946C4E90055C4E9F4
:101950000253C4E904556566A56104F15C00FEF715
:101960000BFFC4E90D55C4E912552046BDE8F081CE
:1019700035682DB12E46D7E7304600F01FF8D0E786
:101980004FF4D6713846FFF7F9F9044668B105609F
:1019900029460546C0F804800C304FF4D072A06090
:1019A000FEF7EAFE34602E46BEE70C2330603B6053
:1019B000DBE700BF841001080100FFFF0023334A6A
:1019C0002DE9F0471268C0E912339042036508BF61
:1019D00001232F4908BF836181620546FFF79AFF03
:1019E000034628466B60FFF795FFA8602846002451
:1019F000FFF790FF04236E68DFF898A0DFF8989057
:101A0000DFF89880264FE8600822F3602146C6E997
:101A10000044C6E904447466B460B46106F15C0035
:101A2000FEF7AAFE1F4BC6E9086AC6E90A983763A3
:101A3000AE680822F3602146C6E90044C6E90444C2
:101A40007466B460B46106F15C00FEF795FE164B57
:101A5000C6E9086AC6E90A983763EE682146F3606A
:101A60000822C6E90044C6E904447466B460B4615F
:101A700006F15C00FEF780FE0123C6E9086AC6E9AC
:101A80000B87C6F82890AB61BDE8F0878410010889
:101A9000D51800087D200008A5200008E5200008D2
:101AA000052100080900010012000200024B034951
:101AB000186800F0BDB900BF84100108FD170008C8
:101AC000836903B97AE77047704700BF704700BF6A
:101AD000704700BF704700BF024B0349186800F011
:101AE00087B900BF000C0020D1180008024B034941
:101AF000186800F07DB900BF000C0020E118000854
:101B00009368002B00F0B7802DE9F04FB1F90C304D
:101B10000C4619078046174683B098B225D523692D
:101B20001BB310F002033D682DD04FF0000B5E4652
:101B3000DFF8B8A2002E00F08B80564533465A4697
:101B400028BF53464046216AD4F828C0E047002801
:101B500040F38780BB6883441B1A361ABB60002B96
:101B6000E8D1002003B0BDE8F08F21464046FFF7E2
:101B70003FFD002840F03681B4F90C303D6898B242
:101B800010F00203D1D110F0010976D14E46002E9B
:101B90005AD08205D4F808B040F1B580B3455A4612
:101BA00000F2CD8010F4906F00F0CB8023682169A3
:101BB000A3EB010B636903EB430A0AEBDA7A0BF13F
:101BC00001034FEA6A0A33445345524684BF9A469A
:101BD0005246430540F1EA8011464046FFF7CEF8F1
:101BE000002800F0F9805A4621690190FEF7D2FCE6
:101BF000A289019B22F4906242F08002A28103EB51
:101C00000B0023613246AAEB0B03B346C4F814A0C1
:101C1000A3602060B246002649460192FEF730FDDF
:101C2000A3682168019AA3EB0B030A44A360226016
:101C3000B868D144A0EB0A00B860002891D0B4F98C
:101C40000C0080B2002EA4D1D5E9009608359EE79D
:101C5000D5E900B608356DE721464046FFF7CEFDD1
:101C600080B3B4F90C304FF0FF3043F04003A38150
:101C700003B0BDE8F08F002070471E46AA46994683
:101C800018461D4656B3002832D04A4620682169BE
:101C9000B24228BF32468842636904D9A16803EB87
:101CA000010B5A4574DC934265DC2A464046216AA2
:101CB000D4F828C0E047B0F1000BD2DDB9EB0B0936
:101CC000CAD00120BB685D44A3EB0B03A6EB0B0657
:101CD000BB60002B3FF445AF002ED4D10AF10803BE
:101CE00053F8046C9A4653F8085C0833002EF7D07A
:101CF00032460A21284600F04DF9002869D001300B
:101D0000A0EB0509C1E72068236998421BD86369E5
:101D1000B34218D86FF0004CB44528BFB4469CFBC2
:101D2000F3FC4A4603FB0CF34046216AD4F828C072
:101D3000E047B0F1000A94DDA6EB0A0678E7B34667
:101D40003246206866E7B345DA4628BFB2464946C0
:101D50005246FEF795FCA3682268A3EB0A0352449F
:101D6000A3602260002BE7D121464046FFF746FDE5
:101D70000028E1D075E7294693460192FEF780FCE2
:101D8000A368019A9B1AA36023681A44226095E70E
:101D900029465A46FEF774FC236821465B444046B8
:101DA0002360FFF72BFD002888D05AE7404600F05B
:101DB0003DF9034600287FF422AF40462169FEF733
:101DC00077FF0C22B4F90C30C8F8002023F0800310
:101DD00049E7721C914659E70C22B4F90C30C8F857
:101DE000002040E74FF0FF30BCE600BF00FCFF7F63
:101DF0002DE9F0410026884600F14807D7E9015453
:101E0000013D0ED4A389013D012B06D9B4F90E3052
:101E1000013302D02046C04706436B1C04F168041E
:101E2000F0D13F68002FE9D13046BDE8F08100BF16
:101E30002DE9F8434FF000090746884600F14806AF
:101E4000D6E90154013D10D4A389013D012B08D9E5
:101E5000B4F90E30013304D021463846C04749EA70
:101E600000096B1C04F16804EED13668002EE7D13E
:101E70004846BDE8F88300BFF0B58B890C4699074A
:101E800097B007D5012204F14703C4E90432236067
:101E900017B0F0BDB4F90E10054600292DDB6A46D7
:101EA0000DF0B6FE002827DB019E4FF4806706F494
:101EB0007046A6F50056B6FA86F6394628467609E3
:101EC000FEF75CFF30B3A3891A4A43F08003AA628D
:101ED000C4E90407A3812060002ED9D02846B4F9B4
:101EE0000E100DF0A1FE0028D2D0A38923F0030329
:101EF00043F00103A381CBE7A38913F0800F14BF44
:101F000040274FF48067284639460026FEF736FF03
:101F10000028D8D1B4F90C309A05B9D4012123F0A6
:101F2000030304F1470243F00203C4E90421A3813F
:101F30002260ADE7D518000870B50C46B1F90E1057
:101F4000164600291D4696B013DB6A460DF060FE6A
:101F500000280EDB01994FF4806301F47041A1F574
:101F60000051B1FA81F1002049092960336016B0AF
:101F700070BD0022B4F90C302A601B0604D5402342
:101F80000020336016B070BD4FF4806300203360D2
:101F900016B070BD5FFA81FC810710D00346511E58
:101FA0002AB90AE09A0718460AD0013905D318461B
:101FB00013F8012B6245F5D1704700207047114698
:101FC00003290CD80029F8D00346014401E08B42D4
:101FD000F3D0184613F8012B6245F8D1ECE702461E
:101FE00010B54CEA0C2444EA044410460368043259
:101FF0006340A3F1013E2EEA030313F0803F04D1B6
:10200000043903291046F0D851B10346014401E0D8
:102010008B4205D0184613F8012B6245F8D110BD4C
:10202000002010BD704700BF704700BFF8B51446D0
:10203000F9B1CAB106460D4600F068F8A04202D3D5
:102040002F463846F8BD21463046FEF797FE074634
:102050000028F6D022462946FEF79CFA304629464B
:10206000FEF726FE3846F8BD2746FEF721FE384625
:10207000F8BD1146BDE8F840FEF780BE10B50C462D
:10208000B1F90E100DF0BBFD002803DB636D0344B6
:10209000636510BDA38923F48053A38110BD00BFE5
:1020A000002070472DE9F0410C46B1F90C101F4695
:1020B000CB05054616460BD421F48051A1813B4641
:1020C00032462846B4F90E10BDE8F0410DF09CBD33
:1020D000B4F90E10022300220DF098FDB4F90C1093
:1020E000EAE700BF10B50C46B1F90E100DF08EFDF9
:1020F000A389421C0EBF23F4805343F480536065D0
:10210000A38110BDB1F90E100DF077BD51F8040C8C
:102110000028A0F10400BCBF0B58C018704700BFD6
:102120002DE9F74304460D4609F08CF800274FF0DF
:1021300012092D4EDFF8B4807080E0B2854250D98C
:1021400000232B4A0FE01CF801EBBEF1FF0F01D07A
:1021500070451BD001310929F5D10133DBB20C2BBD
:1021600002F109023BD094460021ECE7012A07D195
:10217000012B05D173888DF800708DF8017016E081
:102180008DF801308DF80010738810E0D8F8002029
:102190002AB309FB032333F81120110AD3B2120A20
:1021A000E4D1002BECD18DF800308DF801308DF8A2
:1021B0000230009806F01CFBC0F307238DF80400E2
:1021C000C0F307408DF805308DF806009DF8063005
:1021D00020469DF805209DF8041007F0EFF8013423
:1021E000ABE703B0BDE8F083640C00201C140020B2
:1021F0009A0C0020032805D8D82202FB00F10248DF
:1022000005F0FAB8704700BF20140020074B084AB9
:1022100010B51A600023074C2370607009F012F8A3
:1022200060806078BDE81040FFF7E4BF1C14002018
:1022300020140020640C0020024B1878431E5842E2
:1022400058417047640C0020F0B5124B18780128F3
:102250001DD1114B1B68A3B112244A7804FB023331
:102260000A780E4933F812500E4631F8027BC4B298
:10227000AF4207D104F0070136F81110012023F80E
:102280001210F0BD01300928EFD10021F6E700203F
:10229000F7E700BF640C00201C140020F4100108B4
:1022A000704700002DE9F0431F4B85B01B784BB3FE
:1022B000002201AC1146104607F0B8F90025A046EF
:1022C0000A27DFF868900A2249464046FEF762F97D
:1022D00000F086FE0378EAB2B3FBF7F3934200D82E
:1022E000EAB900F07DFE03782678312B0DD9002362
:1022F000962219463046013507F060F80A2D04F1A0
:102300000104E0D105B0BDE8F08300F069FE037878
:102310001D2B4FF00003EBD81A469621EAE7002365
:1023200020781A461946E6E734400020E8100108F4
:10233000F8B50D4616460446364F002845D00BF03A
:1023400031F8354B38601A69570402D51A691104FF
:1023500042D41A69520402D41B691F043ED42E4A87
:102360001169C1F38033490405D5136913F4004F93
:1023700014BF002302232A78511E042930D9062ACB
:1023800030D0002A0CBF03200020244A14B9117851
:10239000994202D11C1A18BF0124022B137023D0BA
:1023A000032B2AD0012B31D102232B7094B100F0E2
:1023B00071FA0022314600F0B7F90AF0F3FF184B2A
:1023C00018600AF0C2FF012005E038680AF09FFF9C
:1023D0003228B4D80020F8BD0323CCE70123CAE794
:1023E0000120D2E70220D0E703232B70002CF1D08C
:1023F00000F050FA00220621DDE701232B70002CAB
:10240000E8D000F047FA00221146D4E7002CE1D0D2
:10241000D3E700BF0015002000080040FC14002096
:10242000F8140020014B1860704700BFF81400201A
:1024300070B503F05DF90446B8B100F0CDFD284D4C
:1024400002782B789A4206D000F0C6FD002203786D
:102450002B70244B1A6000F0BFFD0378022B16D0BE
:10246000032B04D00BB91F4A1360204670BD1D4DCD
:102470002E689EB90AF096FF286000F00BFA054618
:1024800000F008FA32460146284601F0E3FE154DF9
:102490002868C0B90AF086FF2860E6E730460AF0EF
:1024A00036FF47F22F539842F1D90AF07BFF28609C
:1024B000112000F051FF44F620600CF09CFB01203D
:1024C00000F0F0FBE3E70AF022FF074B9842CCD97B
:1024D0000AF068FF2860012000F0E4FBC5E700BFB8
:1024E000FD140020F8140020DF93040013B58DF8CC
:1024F00007100DF10701FFF71BFF044608B9FFF7AE
:1025000097FF204602B010BD2DE9F04103F0F0F82E
:10251000002828D020224FF4804158480DF034FE86
:1025200000BF00BF00BF00BF00BF00BF00BF00BFB3
:1025300000BF00BF00BF00BF00BF00BF00BF00BFA3
:1025400000BF00BF00BF00BF00BF00BF00BF00BF93
:10255000302383F3118803220E2148480DF034FE06
:10256000002383F3118803F0C3F8002828D0202229
:102570004FF4004141480DF007FE00BF00BF00BF0F
:1025800000BF00BF00BF00BF00BF00BF00BF00BF53
:1025900000BF00BF00BF00BF00BF00BF00BF00BF43
:1025A00000BF00BF00BF00BF00BF302383F311880E
:1025B00003220F2131480DF007FE002383F3118819
:1025C0002F4B1B7873B309244FF001082D4E56F89A
:1025D000041B4A1C0BD021F00F0701F00F0108FA71
:1025E00001F50122294638460DF0CEFDBD61013CC2
:1025F00014F0FF04EBD14FF00108234E56F8041BF2
:102600004B1C0BD021F00F0701F00F0108FA01F568
:102610000122294638460DF0B7FDBD610134E4B210
:10262000092CEBD1002280214FF080400DF0ACFD51
:1026300000BF00BF00BF00BF00BF00BF00BF00BFA2
:1026400000BF00BF00BF00BF00BF00BF00BF00BF92
:1026500000BF00BF00BF00BF00BF00BF00BF00BF82
:10266000302383F31188012207214FF080400DF0C1
:10267000ABFD002383F31188BDE8F0810008004022
:10268000F01E00200411010828110108072805D0B8
:102690000E38012804D8072000F0E4BA0320FBE735
:1026A0007047000008B503F023F838B14FF08043BD
:1026B0004FF400129A614FF000729A61074B1B7839
:1026C0005BB1112000F048FE44F620600CF093FA54
:1026D000BDE80840022000F0C5BA08BDF01E002089
:1026E00010B5084C237863B100F0C2FA0338012812
:1026F0009DBF0023032023700220BDE8104000F09E
:10270000A3BA10BDF01E002008B500F065FC0378E8
:10271000022B03D100F068FC007808BD0020FCE724
:1027200000F04ABC70470000F8B50C461546064656
:10273000F8B921BB134F3B78A34200D13DB100F063
:102740004BFC0323037000F04FFC002303703C702C
:1027500004F04EFA2946204600F09AFE2A46214609
:10276000304601F077FD2A4621463046FFF7DAFF72
:10277000F8BD0029DED1012000F00EFADAE70220D0
:10278000FAE700BF1A15002037B5044600F024FC14
:102790000378012B0DD00025CDE9005500F01CFC7D
:1027A0000378022B07D0094B2A4619780846FFF711
:1027B000BBFF03B030BD24B1082221466846FDF7B7
:1027C000E9FE684600F026FDF3E700BF1A15002079
:1027D00037B5044600F000FC0378012B0ED000252D
:1027E00000958DF8045000F0F7FB0378022B07D01A
:1027F0000D4B2A4619780846FFF796FF03B030BD07
:1028000074B163788DF80030A3788DF80130E378E7
:102810008DF8023063798DF8033023798DF8043018
:10282000684600F05BFDE9E71A15002037B504465D
:1028300000F0D2FB0378012B0DD00025ADF8065037
:1028400000F0CAFB0378022B07D0114B2A461978F7
:102850000846FFF769FF03B030BD002CFBD063785A
:10286000A27843EA0223ADF80630813B022B09D857
:1028700001220DF1060002FA03F3ADF8063000F074
:1028800011FDE8E70DF1060000F0F6FCE3E700BFFC
:102890001A150020014B1878704700BF1A15002048
:1028A00038B5154C00252378032B22D8DFE803F038
:1028B000020B131B0A2311488370C5700AF024FB16
:1028C0000123237038BDF6230C48C37085700AF0CD
:1028D0001BFB0223F5E7F62308488370C5700AF056
:1028E00013FB0323EDE70A2304488570C3700AF045
:1028F0000BFB2570E6E700BF041500200C15002037
:102900007047000010B5FFF7FBFF00F079FA00F008
:1029100075FB01F03FFA00F05BF9012803D1BDE837
:10292000104000F05BB900F089F968B9074C2068E5
:1029300004F0B6FC40F6B733984205D900F00EFE1D
:1029400010B104F09DFC206010BD00BF08150020F0
:102950002DE9F04F00258FB08146CDE90255049551
:10296000ADF8145000F038FB0378012B0AD000F0CA
:1029700033FB0378022B08D05C4B2A4619780846B3
:10298000FFF7D2FE0FB0BDE8F08FB9F1000F00F0F5
:10299000A4804FF01E082022494606A8FDF7FAFD44
:1029A000534F9DF819300DF11A063B7016F8010BC4
:1029B000FDF734FC08F1FF34054414F0FF08EDB2D4
:1029C000F4D14C4E4FF0060BB2461AF8013B9BB3C4
:1029D00000242246D3B29D420BD81AF8013CA342F0
:1029E00018BF0AF8018C22E001331E2B04D11C46CB
:1029F00007E000230DF11A0111F8010BDCB20028E9
:102A0000F2D004F138036B4413F81E0C019202F06B
:102A1000FEFF40EAC404E4B2214606A80AF044FBE3
:102A20001AF8013C019AA34202F10102D2D10BF142
:102A3000FF3B1BF0FF0BC8D14946202206A8FDF73B
:102A4000A9FD4FF000084FF001095FFA88F39D429D
:102A50000FD800F095FA002845D125480AF03EFA33
:102A600002A800F0F0FB8DE701331E2B04D11C46B9
:102A700007E000230DF11A0212F8011BDCB2002955
:102A8000F2D004F138036B4413F81E0C02F0BFFFC0
:102A900040EAC404E4B2214606A80AF005FB324627
:102AA000002312F8011BA14202D021B93B449C70C3
:102AB00008F10108C9E70133062BF2D16F2CF7D8D2
:102AC0000EAB03EBD40313F8301C04F0070409FA2F
:102AD00004F40C4303F8304CEAE708224946044862
:102AE000FDF74AFEB5E7FFF70DFFB2E71A15002024
:102AF000121500201415002070B5044660B10AF0CC
:102B0000BDF90D4B834215D018460AF0B1F9BDE866
:102B1000704001200AF09ABB00F05EFA0378022BA5
:102B200008D1054D20466B6898472046AB68BDE844
:102B30007040184770BD00BF680C002038B50446CF
:102B400088B10AF09BF9114C84421ED00122104B2F
:102B50001A7001F051F80F480BF0E0F82046BDE87C
:102B600038400AF085B90B4B1B78042B05D1074D73
:102B70006B6898472046AB68984706480CF0D0FD34
:102B800004480DF0CBF901F03FF838BD140F0020D8
:102B90003D3C0020504F002010B50C4B04461A78E5
:102BA000824204D00128187002D0022807D010BD3C
:102BB0000020FFF7A1FF2046FFF7C0FFF7E7002046
:102BC000FFF7BCFF0120FFF797FFF0E7800C002024
:102BD000014B1878704700BF800C002010B5FFF73C
:102BE00059FE0E4CB0B90E4B1B78052B12D1236841
:102BF00013B904F045FB2060206804F051FB41F656
:102C00005733984208D9002301202360BDE81040C3
:102C100000F048B80023236010BD00BF1C15002041
:102C2000504F002008B5044B186804F039FBC72842
:102C300094BF0020012008BD24150020014B187806
:102C4000704700BF20150020014B1870704700BF6F
:102C50002015002008B504F013FB014B186008BDD7
:102C600024150020014B1870704700BF2815002064
:102C7000014B1878704700BF28150020302310B58D
:102C800083F3118800F0A0FC002484F3118872B64D
:102C900000F052FE00F094FD04F066FC84F311880D
:102CA00062B610BD014B1870704700BF2915002097
:102CB00010B5074C237828B11BB1FFF7CBFF0323D6
:102CC000237010BD002BFCD10122024B1A70F8E7D3
:102CD0002015002029150020F8B50F4B0F4E1F6856
:102CE00001F001F8054618B9002434702046F8BDFB
:102CF000FFF7D0FD18B90A4B1B78042BF4D03478B9
:102D00001CB100232C463370F0E7002FEED003F007
:102D100063FFB842EAD3F4E7840C002029150020B1
:102D2000504F002008B500F0E5FF18B1BDE808409D
:102D3000FFF778BF08BD0120704708B5FFF7FBFF1C
:102D400018B1BDE80840FFF76DBF08BD70B5FFF7CB
:102D5000A1FD044668B9084E3578012D09D100F06F
:102D60004BFF30460AF0DAFF224621462846FFF79D
:102D7000DBFC012070BD00BF504F002008B5FFF7FD
:102D8000E5FF18B1BDE80840FFF74CBF08BD70472C
:102D900008B508F0A7F9003818BF0120044B1870D7
:102DA00008F088F90AF0C8FAFFF7F1FF08BD00BF84
:102DB0002A150020002310B5074C2370FFF772FC82
:102DC000FFF75CFF2378054A022B18BF032313701B
:102DD000FFF786FC10BD00BF28150020201500203D
:102DE00008B5064B1B780BB108F04AF90AF0ADFAAA
:102DF00002F05AFCBDE8084003F0FABE2A15002094
:102E000010B5154C2378032B1BD8DFE803F0020A1A
:102E1000131BFFF761FFA0B1FFF71CFF0123237015
:102E20000FE0FFF77FFF60B1FFF7B2FFFFF712FF80
:102E30000223F4E7FFF781FF18B1FFF70BFFFFF75D
:102E4000B9FF10BDFFF79AFF0028FAD0FFF7C8FFBF
:102E5000FFF700FF0023E2E720150020202938B506
:102E600005460C4610D1FFF7B3FE012806D12246D5
:102E70002946BDE8384002200AF096BF2146284680
:102E8000BDE8384000F0E0BA38BD09F0A5BE00004A
:102E9000054A064B06495A60116051609A60DA6033
:102EA000002219611A707047101D0020FC1C0020C0
:102EB0002B1500202DE9F041174C0E466768A568D8
:102EC00007F59C784545E36804D19F4206D1002070
:102ED000BDE8F08105F108029342F7E70F49226946
:102EE00001F2CF739B1A312B98BF2161322EEED89D
:102EF0002369014632461846FDF74CFB034645451B
:102F0000334428606B6018BF08354FF0010023611F
:102F10000CBFA760A560DBE7FC1C00202B15002080
:102F2000074A10B5D3689268934207D0D3E90014DA
:102F3000641A2246FDF72EFB204610BD0024FBE755
:102F4000FC1C0020074BDA6899688A4208D059684F
:102F500001F59C70824201D1D96070470832DA6075
:102F6000704700BFFC1C0020014B1878704700BF61
:102F7000FC1C0020014B1870704700BFFC1C002097
:102F8000034BD8689B68C01A18BF0120704700BF68
:102F9000FC1C00200246002330B50C1812F8015B1F
:102FA0002B44A242DBB2F9D1435430BD012070471B
:102FB00008B5FFF7FBFF08BD08B54FF4E1300AF094
:102FC00087FCFFF765FFBDE8084024220021014887
:102FD000FDF7D2BB551E002000487047880C00202A
:102FE000004870478B0C002000487047890C002077
:102FF00018B111B189B20AF09BBC704773B5FFF7E5
:10300000B3FF03280FD8DFE800F040022D3B774BD9
:10301000186804F045F90A2805D900220220744BEB
:103020001A70FFF7A7FF734D734C0AF08BFC002852
:1030300056D00AF073FC2A68012A38D0022A3ED002
:10304000002A5BD161282FD85F2804D8A0F15A0349
:10305000DBB2032BE9D8012302222B60674B2070DF
:103060001A70E2E7624A13780133DBB2282B02D8E8
:1030700013700020D5E700231370FFF763FFF8E714
:10308000FFF760FF0020FFF775FF5D48FFF748FF7F
:1030900001460028C7D05A48FFF7AAFF04F0F0F80D
:1030A000524B18600120BCE7AF28BED1D3E7022302
:1030B000524A2B6013786070013B1370B5E7237898
:1030C000612B0FD163780D2B18D10A2816D1FFF789
:1030D0004BFF012802D10320FFF74CFF00232B6098
:1030E00002B070BDAF2B09D16378602B06D10323EA
:1030F0002B60424BA0700130187096E73F49531C7B
:103100002B600B78A054013BDBB20B70002B8CD1F1
:10311000194639488A421FD1A25C9A4230D1032213
:10312000384901A8FDF736FA032101A80AF000FC8E
:1031300020462978FFF73CFF0028D1D02378602B68
:1031400010D8592B1CD95A3B062B19D8DFE803F0AD
:103150001B1F3F431818470010F8016B013133441F
:10316000DBB2D7E7AF2B0BD1A678202E08D12649AA
:1031700032462648FDF70EFA31462448FFF785FE11
:1031800000232B6051E76278214B5A70F8E763788F
:10319000313B052BF4D801A252F823F0B5310008D9
:1031A000BD310008C33100088131000881310008B9
:1031B000C93100080122164B1A70E1E70222144BB4
:1031C000FAE70322124BF7E70422114BF4E7627887
:1031D0000F4BDA70D4E762780D4B9A70D0E76078C5
:1031E000431E58425841FFF763FDC9E7C01E002047
:1031F000BD1E0020501E0020991E0020541E0020DD
:10320000551E00204C1101089C1E0020791E002034
:10321000880C00201FB5002301930293ADF80C30F9
:10322000A123082201460DF105008DF80430FDF7B9
:10323000B1F901A80921FFF7ADFE0A21FFF73AFE17
:1032400005B05DF804FB1FB50023CDE90033029300
:103250000393A2230E2201460DF101008DF80030E8
:10326000FDF798F968460F21FFF794FE1021FFF74C
:1032700021FE05B05DF804FB002307B50193A323ED
:10328000022201460DF105008DF80430FDF782F9A8
:1032900001A80321FFF77EFE0421FFF70BFE03B018
:1032A0005DF804FB37B5022504462A460A4901A801
:1032B000FDF770F900238DF80630A4238DF8043053
:1032C0002378294601A88DF80530FFF763FE032116
:1032D000FFF7F0FD03B030BD380F0108002307B53C
:1032E0000093ADF804308DF80630A823052201467E
:1032F0000DF101008DF80030FDF74CF9684606210C
:10330000FFF748FE0721FFF7D5FD03B05DF804FB8A
:1033100030B50021054687B0112201A80091FDF7C4
:103320002BFA2846FDF73EFCC4B2122C11D8A92373
:10333000224629460DF102008DF800308DF801403B
:10334000FDF728F9A11C6846FFF724FE1521FFF7B9
:10335000B1FD07B030BD000037B5022504462A464E
:103360000A4901A8FDF716F900238DF80630A623B7
:10337000294601A88DF804308DF80540FFF70AFEB4
:103380000321FFF797FD03B030BD00BF380F0108E0
:1033900030B50C4600218FB005462D2202A80191C0
:1033A000FDF7EAF92E2C11D8AB23224629460DF160
:1033B00006008DF804308DF80540FDF7EBF8A11CF0
:1033C00001A8FFF7E7FDE11CFFF774FD0FB030BD6A
:1033D00030B50C4600218FB005462D2202A8019180
:1033E000FDF7CAF92E2C11D8AC23224629460DF13F
:1033F00006008DF804308DF80540FDF7CBF8A11CD0
:1034000001A8FFF7C7FDE11CFFF754FD0FB030BD69
:103410001FB5002304220293ADF80C30AD2340EA1F
:10342000014001900DEB02010DF109008DF808300B
:10343000FDF7B0F802A80521FFF7ACFD0621FFF764
:1034400039FD05B05DF804FB30B50C4600218BB0AA
:103450000546202202A80191FDF78EF9202C14D1F7
:10346000AF238DF804306123224629460DF1070071
:103470008DF805308DF80640FDF78CF8232101A862
:10348000FFF788FD2421FFF715FD0BB030BD0000CC
:1034900010B50C46062851D8DFE800F004212C3581
:1034A0003E4709001120BDE81040FFF755BF30200E
:1034B000FFF752FF002C41D012212148FFF768FF8F
:1034C00018212048FFF784FF43F22D404EF2C641F9
:1034D000FFF79EFF5220FFF73FFF5120E3E7312027
:1034E000FFF73AFF54B35220FFF736FF1648FFF7B5
:1034F0000FFFF2E73220FFF72FFFFCB15220FFF75A
:103500002BFF1248F3E73320FFF726FFB4B1522018
:10351000FFF722FF0E48EAE73420FFF71DFF6CB1EA
:103520005220FFF719FF0B48E1E73520FFF714FFA2
:1035300024B15220FFF710FF0748D8E710BD00BFA5
:1035400050110108621101087A1101088411010863
:103550008E11010898110108A411010808B5FFF7A0
:103560000FFD20B95320FFF7F7FE012008BD002012
:10357000FCE7000010B5C4B20B2C03D0122C0ED007
:10358000012000E00220FFF76DFB2046FFF77EF8E8
:103590000CF0D3FD4FF0FF32024B5A6110BD0420F6
:1035A000F1E700BF001800400023054A0549C2E9C1
:1035B00000130133102B02F10802F8D1704700BF4D
:1035C000B04B0020753500082DE9F041FFF7ECFF06
:1035D00002F08EF8002800F0938009254FF00108D2
:1035E000724E56F8041B481C0CD021F00F0701F056
:1035F0000F0108FA01F421460522384624040CF094
:10360000C3FDBC61013D15F0FF05EAD1062401268A
:103610003027674D55F8040B411C2ED000F00F01E8
:10362000202206FA01F120F00F000CF0ADFD00BFE2
:1036300000BF00BF00BF00BF00BF00BF00BF00BF92
:1036400000BF00BF00BF00BF00BF00BF00BF00BF82
:1036500000BF00BF00BF00BF00BF00BF00BF87F3B7
:10366000118855F8040C022200F00F0120F00F0021
:103670000CF0AAFD002383F31188013C14F0FF0431
:10368000C8D100224FF480614FF080400CF07CFDE7
:1036900000BF00BF00BF00BF00BF00BF00BF00BF32
:1036A00000BF00BF00BF00BF00BF00BF00BF00BF22
:1036B00000BF00BF00BF00BF00BF00BF00BF00BF12
:1036C000302585F3118803220A214FF080400CF049
:1036D0007BFD002484F3118885F3118801220C21DD
:1036E0004FF080400CF070FD84F3118806212320F8
:1036F0000CF0CAFAFEF708FFBDE8F0410CF0FEBC82
:1037000009254FF001082B4E56F8041B4A1C0CD01B
:1037100021F00F0701F00F0108FA01F421460522FC
:10372000384624040CF030FDBC61013D15F0FF0566
:10373000EAD10624012630271F4D55F8040B431CFF
:103740002ED000F00F01202206FA01F120F00F0028
:103750000CF01AFD00BF00BF00BF00BF00BF00BFDC
:1037600000BF00BF00BF00BF00BF00BF00BF00BF61
:1037700000BF00BF00BF00BF00BF00BF00BF00BF51
:1037800000BF00BF87F3118855F8040C022200F037
:103790000F0120F00F000CF017FD002383F31188B8
:1037A000013C14F0FF04C8D16BE700BFB011010861
:1037B00054120108D4110108541201087047000086
:1037C00008B50AF03BFB03222B4B2C499A620C22D2
:1037D000DA62D1F890202A4822F01802C1F890202D
:1037E00000229A62DA62D3F8402C03F5406342F477
:1037F00080721A641A6C4FF4006142F002021A647B
:1038000001225A63DA67DA6608225A615A695A61F4
:103810005A6942F001025A619A6C42F4C0629A6499
:103820009A6C9A6C42F480429A649A6CDA6C42F018
:103830000802DA64DA6C9A6C42F480529A649A6CE8
:10384000DA6C42F01002DA6440F28232DB6C0CF087
:103850009BFC40F282324FF400714FF080400CF03C
:1038600093FC40F282324FF480614FF080400CF0C4
:103870008BFCFFF7A3FF08BD0000014000040140DE
:10388000000800404FF0E02210B500210124136928
:1038900023F001031361224B224A5A6100228B005C
:1038A00003F1604303F56143D3F80001D040C00742
:1038B00048BF04FA02F002F1010248BFC3F88001D8
:1038C000202AF1D101310829E8D1174C636843F06F
:1038D00000736360154B1A6802F009021A601A68D7
:1038E00042F46C3242F004021A6040F2B3321A62BF
:1038F0000F4B43F001039847236943F0040323610E
:1039000030BF0C4B43F0010398474FF0E02223698E
:1039100023F004032361136943F00103136110BD15
:1039200000180040FFFF070000ED00E0000001402C
:103930002C120108F8110108FFF7A4BF0B8807B586
:10394000A3F5FC43032B1ED8DFE803F002213B550F
:10395000364A012013789278C3F3420302F007023B
:103960000DF107018DF80730FEF7E2FC9DF80730F6
:10397000042B02D013F0FD0F05D1FEF78BFF0122BF
:103980001146FEF7D1FE002003B05DF804FB274A84
:10399000012013789278C3F3420302F007020DF17D
:1039A00007018DF80730FEF7C3FC9DF80730042BA4
:1039B00002D013F0FD0FE6D1FEF76CFF01220221C9
:1039C000DFE71A4A012013789278C3F3420302F02A
:1039D00007020DF107018DF80730FEF7A9FC9DF8ED
:1039E0000730042B02D013F0FD0FCCD1FEF752FFAD
:1039F00001220321C5E70D4A012013789278C3F311
:103A0000420302F007020DF107018DF80730FEF7BF
:103A10008FFC9DF80730DA1E012A01D9002BB2D1A4
:103A2000FEF738FF01220621ABE700BFAC490020BA
:103A300008B540F282324FF400714FF080400CF034
:103A4000A3FBBDE8084040F282324FF480614FF0A2
:103A500080400CF099BB000010B50A4C238803F09D
:103A60000E0363F0FE032380A37823F00F0343F0DB
:103A70000103A370FEF714FC2068BDE8104003F0BA
:103A80005EB800BFAC490020002310B586B08DF8A9
:103A90000C3004938DF8143055238DF8083005232D
:103AA00004AC8DF809008DF80A108DF80B2019462A
:103AB000009402AA0F2004F0ADF906B010BD00007A
:103AC00008B503F03AF8044B186018B9BDE808408F
:103AD000FFF7C2BF08BD00BFAC49002008B5FFF723
:103AE000EFFF09F05FFC3C4B186001F001FE012282
:103AF000202100285CD04FF080400CF045FB07F0FF
:103B0000A1FB18B14FF0804320229A6101224FF4AB
:103B100080714FF080400CF037FB07F093FB20B131
:103B20004FF080434FF480729A6120224FF480411D
:103B30002A480CF029FB20224FF4004127480CF0C2
:103B400023FB4FF4003326480122836102210CF04D
:103B50001BFB002280214FF080400CF015FB4FF43E
:103B6000004120224FF080400CF00EFBFEF7D8FD04
:103B700009F018FC1B4B186003F083F81A4B1878F7
:103B80000009FEF743FB07F039FB184BC0F307228F
:103B90001870C0F307405A709870FFF721FA144B61
:103BA000027814491A700F20BDE8084004F024B9C7
:103BB0004FF080400CF0E8FA01224FF480714FF092
:103BC00080400CF0E1FA07F03DFB0028ADD04FF04B
:103BD000804320229A61A5E7E81E002000080040EB
:103BE00000040040F41E0020AC490020A849002039
:103BF00038400020E55500084FF40032014B9A612F
:103C0000704700BF000400400222014B9A617047D8
:103C1000000400407FB5FFF70BFF042200210DF1E7
:103C20000900FCF7A9FD002204AB04928DF81420D2
:103C30000093CC2205238DF80820194602AA0F20F4
:103C400004F0E8F807B05DF804FB10B501F050FD92
:103C500070B107F0F7FA18B14FF0804320229A6153
:103C600007F0F0FA20B14FF080434FF480729A6170
:103C7000FEF710FE0446FEF70DFE00220146204628
:103C8000FEF752FDFFF7C6FF09F08CFBBDE81040C0
:103C9000FEF7C8BB7FB5042200210DF10900FCF737
:103CA0006BFD002204AB04928DF814200093BB221C
:103CB00005238DF80820194602AA0F2004F0AAF85F
:103CC00007B05DF804FB08B501F012FD38B14FF004
:103CD00080434FF400129A614FF080729A61BDE800
:103CE0000840FFF7D7BF08B5FEF7D4FD003818BF6E
:103CF000012008BD10B586B001F0FAFC48B30023DE
:103D0000ADF80A308DF80C3004938DF81430AA23E6
:103D10008DF808301A4B04AA1B780F208DF8093053
:103D200005230092194602AA04F074F8154B1B787B
:103D300013F00E0F0DD004224FF480614FF080403D
:103D40000CF022FA04224FF400714FF080400CF086
:103D50001BFAFEF79FFD78B90B4B1B7863B90B4C30
:103D60002378012B08D00222094B20469A610CF0DF
:103D7000D5F820460BF0D4FC012006B010BD00BFE2
:103D8000F01E0020AC490020D01E0020504F002023
:103D90000004004038B5144D144C2868C8B109F02F
:103DA000B6FA632815D97020FFF7D6FA5520FFF729
:103DB000D3FA5720FFF7D0FA0022217811F00E0F26
:103DC0000CBF01201046C1F34201FEF7ADFC0023F9
:103DD0002B60A27821780020BDE8384002F007026D
:103DE000C1F34201FEF782BBF41E0020AC49002063
:103DF000554B37B51880A0F5FC400C46032800F25F
:103E0000A080DFE800F002355778504A012013788F
:103E10009278C3F3420302F007020DF107018DF817
:103E20000730FEF785FA9DF80730042B02D013F017
:103E3000FD0F1AD16579464C002D7DD0FEF72AFD85
:103E4000012805D0FEF726FD00220121FEF76CFCBB
:103E5000237833B940F6B8303B4A3E4907F008FEB4
:103E6000207009F09FFAFEF7DDFA002003B030BDA4
:103E7000364A012013789278C3F3420302F0070216
:103E80000DF107018DF80730FEF752FA9DF8073063
:103E9000042B02D013F0FD0FE7D165792C4C002DD7
:103EA0004AD0FEF7F7FC0228D2D0FEF7F3FC00223E
:103EB0000221CBE7254A012013789278C3F342030D
:103EC00002F007020DF107018DF80730FEF730FA16
:103ED0009DF80730042B02D013F0FD0FC5D1657992
:103EE0001B4C4DB3FEF7D6FC0328B1D0FEF7D2FC35
:103EF00000220321AAE7154A012013789278C3F320
:103F0000420302F007020DF107018DF80730FEF7BA
:103F10000FFA9DF80730DA1E012A01D9002BA4D12F
:103F200065790B4C45B1FEF7B5FC062890D0FEF73D
:103F3000B1FC0022062189E7207807F0A7FD257053
:103F40008FE7012092E700BFDE1E0020AC49002071
:103F5000FB1E00203D3900082DE9F04104460D46C6
:103F600001F066FC0646A0B3244B1A783AB16A7990
:103F70002AB10022114610461A7005F057FBFFF7D0
:103F80002BF80378022B03D109F00CFAFEF74AFA5A
:103F900045F223239C4207D047F643039C4218D0A6
:103FA00045F221239C4217D195F80580B8F1000F06
:103FB0000FD1FEF741F9074658B1114E33782BB1B6
:103FC0002946204686F80080FEF73EF9012333702B
:103FD0003E463046BDE8F081FEF72EF90028F8D0C5
:103FE000A4F5A443203B1F2BF3D96B79002BF0D011
:103FF00029462046FEF728F90026EAE7FA1E0020A7
:104000005840002013B507F0B3F80128374C0CD105
:1040100007F0F4F8C0F3072310F0FF008DF8053027
:1040200013D1DBB2C3B10323237023780133DBB296
:104030000B2B237020D10023237007F033F8237853
:104040002B4AD05C07F090F822E0782810D005D8F1
:10405000282809D0502809D00923E5E7A02809D04D
:10406000C828F9D10823DFE70423DDE70523DBE7D0
:104070000623D9E70723D7E70A2BDED107F0BEF8DE
:10408000FF21C0F30742002007F0B5F807F022F83F
:1040900007F0B4F82378C0F30742092B24D8DFE8EF
:1040A00003F01D2323050C0F1215181BFF21002000
:1040B00002B0BDE8104007F09EB8FF212820F7E7C6
:1040C000FF215020F4E7FF217820F1E7FF21A02015
:1040D000EEE7FF21C820EBE70021E8E7FF2002B070
:1040E000BDE8104007F02CB9C820F8E7F11E002009
:1040F0008C0C002030B587B0FEF7CCFB20B93C4BD0
:104100001B780BB1FEF7CCFBFEF7FCFB4FF08043B6
:104110001B69384CC3F3C013237001F0E9FA20B3D4
:10412000354D286809F0F3F8B0F57A7F1DD309F012
:1041300039F90023ADF80A308DF80C3004938DF86E
:104140001430F1238DF80830237804AA8DF8093053
:1041500005232860194600920F2002AA03F05AFE98
:1041600018B109F01FF9254B18604FF080431B6907
:10417000234AC3F3C0331370227882B3002B14BFD9
:10418000662464241F4D286858BB09F00BF9286089
:104190002046FFF7E1F85320FFF7DEF801F0A8FA18
:1041A000C0B1194C206809F0B2F8B0F5FA6F11D916
:1041B00009F0F8F82060FEF713FF144D03782B7018
:1041C000FEF768FB0446FEF765FB2A7801462046A9
:1041D000FFF75AFC07B0BDE8304002F06EBD652421
:1041E000D0E709F094F8B0F57A7FCED8D6E700BFD3
:1041F00035400020D01E0020E41E0020E81E0020D4
:10420000C41E0020D81E0020E01E002038400020E0
:1042100073B5154606461C46019109F0C3F8084BD4
:1042200003221860074B64001E60074B01A91D6044
:10423000064B07481C60FCF7ADF902B070BD00BF2B
:10424000081F0020FC1E0020001F00200C1F002063
:10425000051F0020F7B55E4B5E4D0E462F781446C5
:104260001A70FEF717FBC7F34207874213D0FEF719
:1042700011FB2B7800F0070060F343032B7003F071
:104280000E032BB103289EBFAB7860F30203AB7023
:10429000286802F054FC711E052900F29780DFE8BF
:1042A00001F0031F374F677FFF237CB100228DF899
:1042B00006308DF804208DF805200123C822112036
:1042C000019903B0BDE8F040FFF7A2BF8DF80630BA
:1042D0004FF4FA7201238DF804408DF80540EEE7A3
:1042E000FF235CB100228DF806308DF804208DF894
:1042F00005200123C82212200199E2E78DF806303B
:104300004FF4FA7201238DF804408DF80540F2E76E
:10431000FF235CB100228DF806308DF804208DF863
:1043200005200123C82213200199CAE78DF8063021
:104330004FF4FA7201238DF804408DF80540F2E73E
:10434000FF235CB100228DF806308DF804208DF833
:1043500005200123C82229200199B2E78DF80630F3
:104360004FF4FA7201238DF804408DF80540F2E70E
:10437000FF235CB100228DF806308DF804208DF803
:1043800005200123C8222A2001999AE78DF80630DA
:104390004FF4FA7201238DF804408DF80540F2E7DE
:1043A000FF238DF804304CB10023C8228DF805306E
:1043B0008DF8063001231420019982E701234FF480
:1043C000FA728DF805408DF80640F4E703B0F0BDB1
:1043D000041F0020AC49002010B5FEF7FDFD037856
:1043E000022B0CD0FEF756FA0446FEF753FA064BA2
:1043F00001461A782046FFF72DFF012010BD01F07D
:104400002DFB0020FAE700BF041F002070B5164CFA
:104410002068D0B108F07BFF144B154D1B68984203
:1044200008D2144B18682B6813F0010313D11A46F5
:10443000194614E008F0B6FF2B68206033B900235A
:104440002360FFF7C9FF0028EBD170BD013B2B6053
:10445000002BE6D1F3E708498B784A780978BDE864
:10446000704004F0ABBF00BF081F0020001F0020F9
:104470000C1F0020FC1E0020051F0020F7B50C4C6F
:104480001D46237806461746019173B90123237010
:1044900008F088FF6D006060032201A904F111009B
:1044A000A760E5602674FCF775F803B0F0BD00BFA7
:1044B0003C40002010B5124C237803B3606808F02C
:1044C00026FFA36898420FD308F06CFFE368606092
:1044D00033B900232370636000231A46194609E0AC
:1044E000013BE360002BF4D0E368DB07F4D5E37C09
:1044F000A27C617C207CBDE8104004F05FBF10BD51
:104500003C40002013B501F0F3F800284AD0264BB8
:104510001C78B4B1254B26491A78264B1B785BB121
:1045200000230B60002A3DD01A46FF213F2002B035
:10453000BDE8104004F042BF0B609AB3FF22194659
:10454000F4E7FEF74DFD0378052B29D8FF238DF8FE
:1045500005408DF804308DF80640012347F23052B3
:104560003F200199FFF78AFFFEF73AFD0378CBB9A8
:104570000F4C236813B908F015FF2060206888B13C
:1045800008F0C5FE4EF6602398420BD900230120A7
:104590002360094B187002B0BDE81040FEF782BBE3
:1045A000034B1C6002B010BDD01E0020DC1E00209A
:1045B000CC1E0020C41E0020F01E00202DE9F34177
:1045C00006461D46182000231746134A019100FB9A
:1045D00003F111F802808C18B8F1000F17D10123F4
:1045E000237008F0DFFE6D0060600322A760E560C5
:1045F000267401A904F11100FBF7CCFFFF2E0ABFBE
:10460000064BC4F81480636102B0BDE8F081013349
:10461000632BDCD1F8E700BF60400020B146000802
:104620001FB500248DF800408DF801408DF8024040
:1046300000990123FA223620FFF7C0FF8DF80440CD
:104640008DF805408DF8064001990123FA22422099
:10465000FFF7B4FF8DF808408DF809408DF80A4047
:1046600002990123FA224320FFF7A8FF0123FA222F
:1046700041208DF80C408DF80D408DF80E400399C7
:1046800004B0BDE81040FFF799BF102307B58DF8BF
:1046900004308DF805308DF80630FA220323FF2010
:1046A0000199FFF78BFF012003B05DF804FB0000C8
:1046B0001822144B82B002FB0030437C6E2B10D1C9
:1046C000827CE2B9C27CD2B98DF804308DF8052025
:1046D0008DF806200123FA22FF20019902B0FFF78E
:1046E0006DBF63B9837C6E2B09D1C37C3BB98DF858
:1046F00004308DF805306F238DF80630EAE702B0FC
:10470000704700BF60400020094A0023114610B5E1
:10471000147C844206D1182253430022C818C26078
:10472000CA5410BD0133632B02F11802F0D1F8E72F
:104730006040002070B586B005460E46FFF70CFCC1
:1047400018B90024204606B070BD31462846FFF750
:104750004FFB04460028F4D0452D7FD81D2DF1D9FC
:104760001E3D272DEED801A353F825F0014C00087B
:10477000494C0008914C0008E54C0008394D0008F0
:10478000854D0008C74D00080F4E0008574E000821
:104790009F4E0008454700087F4F0008E94F00087A
:1047A0004547000845470008E74E00082F4F00081E
:1047B00045470008454700084547000845470008A9
:1047C0004547000845470008AD4F00084547000829
:1047D0004547000845470008454700083749000895
:1047E00071490008AB490008E54900081F4A000864
:1047F000594A0008934A0008CD4A0008194B00089E
:10480000534B00088D4B0008C74B0008A5F5FC452D
:10481000053D022D00F25584DFE815F06205120413
:104820003D04A5F5F045433D092D8BD801A353F870
:1048300025F000BF655200084547000845470008BD
:104840004547000845470008454700080F51000844
:1048500069510008E1500008FB50000847F64C037E
:104860009D424BD847F642039D42DAD8B5F5A44F96
:1048700000F0A5841FD8E32D00F00385E72D7FF419
:1048800061AFA14D287801F0C2F8022840F01C85E4
:104890009E4B1B78DB067FF555AFFDF7CDFC00285E
:1048A0007FF450AF7579E720002D00F0158500F0FA
:1048B00089FF2C4646E745F202239D4200F0A98479
:1048C00047F213039D427FF43DAFFDF7B5FC00288E
:1048D00040F0B8837579002D3FF434AF00236E2289
:1048E0008DF810308DF811208DF81230FA22012346
:1048F000FF200499FFF762FE2C4623E747F6076383
:104900009D423FF61FAF47F603639D423FF67EAFE1
:10491000B5F5F84F00F0CA8347F603439D427FF494
:1049200011AF74797A4D002C00F0D78308F03AFD6E
:104930000024286006E7774B9B78D9067FF502AF05
:10494000714D287801F063F8022805D1747954B9C3
:10495000AF2000F04DFFF5E6287801F058F8032865
:104960007FF4F0AEF2E7AF2000F02CFF0024E9E680
:10497000684B9B78DA067FF5E5AE634D287801F049
:1049800046F8022805D1747954B9AA2000F030FF06
:10499000D8E6287801F03BF803287FF4D3AEF2E79D
:1049A000AA2000F00FFF0024CCE65A4B9B78DB06D0
:1049B0007FF5C8AE544D287801F029F8022805D1BA
:1049C000747954B9A92000F013FFBBE6287801F0F0
:1049D0001EF803287FF4B6AEF2E7A92000F0F2FE3D
:1049E0000024AFE64B4B9B78DD067FF5ABAE464D22
:1049F000287801F00CF8022805D1747954B9A82060
:104A000000F0F6FE9EE6287801F001F803287FF416
:104A100099AEF2E7A82000F0D5FE002492E63D4BC7
:104A20009B78D8067FF58EAE374D287800F0EFFFE3
:104A3000022805D1747954B9AD2000F0D9FE81E681
:104A4000287800F0E4FF03287FF47CAEF2E7AD2085
:104A500000F0B8FE002475E62E4B9B78D9067FF552
:104A600071AE294D287800F0D2FF022805D1747963
:104A700054B9AC2000F0BCFE64E6287800F0C7FF13
:104A800003287FF45FAEF2E7AC2000F09BFE002429
:104A900058E6204B9B78DA067FF554AE1A4D2878FD
:104AA00000F0B5FF022805D1747954B9AE2000F0AA
:104AB0009FFE47E6287800F0AAFF03287FF442AE65
:104AC000F2E7AE2000F07EFE00243BE6114B9B781F
:104AD000DB067FF537AE0C4D287800F098FF0228F2
:104AE00005D1747954B9AB2000F082FE2AE628780B
:104AF00000F08DFF03287FF425AEF2E7AB2000F035
:104B000061FE00241EE600BF161F0020C8490020D9
:104B1000D41E0020AC490020984B9B78DD067FF521
:104B200011AE974D287800F072FF022805D17479F4
:104B300054B9B12000F05CFE04E6287800F067FF6D
:104B400003287FF4FFADF2E7B12000F03BFE002424
:104B5000F8E58A4B9B78D8067FF5F4AD884D287828
:104B600000F055FF022805D1747954B9B52000F042
:104B70003FFEE7E5287800F04AFF03287FF4E2AD26
:104B8000F2E7B52000F01EFE0024DBE57B4B9B78AE
:104B9000D9067FF5D7AD7A4D287800F038FF022886
:104BA00005D1747954B9B22000F022FECAE5287804
:104BB00000F02DFF03287FF4C5ADF2E7B22000F02E
:104BC00001FE0024BEE56D4B9B78DA067FF5BAAD99
:104BD0006B4D287800F01BFF022805D1747954B979
:104BE000B42000F005FEADE5287800F010FF0328A2
:104BF0007FF4A8ADF2E7B42000F0E4FD0024A1E5C5
:104C00005E4B9B78DB067FF59DAD5D4C207800F018
:104C1000FEFE02280ED0207800F0F9FE032809D00D
:104C200074793A201CB100F067FF00248AE500F097
:104C3000ABFF87E57479BE201CB100F05DFF002456
:104C400080E500F0A1FF7DE54C4B9B78DD067FF50C
:104C500079AD4B4C207800F0DAFE02280ED0207897
:104C600000F0D5FE032809D074793B201CB100F078
:104C700043FF002466E500F087FF63E57479BD20FB
:104C80001CB100F039FF00245CE500F07DFF59E520
:104C90003A4B9B78D8067FF555AD394C207800F01B
:104CA000B6FE02280ED0207800F0B1FE032809D00D
:104CB00074793C201CB100F01FFF002442E500F095
:104CC00063FF3FE57479E32034B100F015FF2B203A
:104CD00000F012FF002435E500F056FF2B2000F015
:104CE00053FF2FE5254B9B78D9067FF52BAD244C40
:104CF000207800F08CFE02280ED0207800F087FE8D
:104D0000032809D074793D201CB100F0F5FE002481
:104D100018E500F039FF15E57479E32034B100F0AF
:104D2000EBFE082000F0E8FE00240BE500F02CFF6D
:104D3000082000F029FF05E5104B9B78DA067FF587
:104D400001AD0F4C207800F062FE02280ED02078D2
:104D500000F05DFE032809D074793E201CB100F0FC
:104D6000CBFE0024EEE400F00FFFEBE473790BB907
:104D70000024E7E406F0D8FA0024E3E4AC4900207C
:104D8000161F0020954B9B78DB067FF5DBAC944C1F
:104D9000207800F03CFE02280ED0207800F037FE8C
:104DA000032809D074793F201CB100F0A5FE00242F
:104DB000C8E400F0E9FEC5E47379002BD8D006F012
:104DC0009FFA0024BEE4854B9B78DD067FF5BAACE4
:104DD000834C207800F01BFE02280ED0207800F0D3
:104DE00016FE032809D0747940201CB100F084FE1F
:104DF0000024A7E400F0C8FEA4E47479AC201CB140
:104E000000F07AFE00249DE400F0BEFE9AE4734BAD
:104E10009B78D8067FF596AC714C207800F0F7FDB2
:104E200002280ED0207800F0F2FD032809D0747912
:104E300041201CB100F060FE002483E400F0A4FED9
:104E400080E47479AE201CB100F056FE002479E4B1
:104E500000F09AFE76E4614B9B78D9067FF572AC40
:104E60005F4C207800F0D3FD02280ED0207800F0AF
:104E7000CEFD032809D0747942201CB100F03CFE1D
:104E800000245FE400F080FE5CE47479AB201CB188
:104E900000F032FE002455E400F076FE52E44F4B61
:104EA0009B78DA067FF54EAC4D4C207800F0AFFDD4
:104EB00002280ED0207800F0AAFD032809D07479CA
:104EC00043201CB100F018FE00243BE400F05CFE1F
:104ED00038E47479A8201CB100F00EFE002431E4FF
:104EE00000F052FE2EE43D4B9B78DB067FF52AACAA
:104EF0003B4C207800F08BFD02280ED0207800F08B
:104F000086FD032809D0747944201CB100F0F4FD1B
:104F1000002417E400F038FE14E47479AA201CB1D0
:104F200000F0EAFD00240DE400F02EFE0AE42B4B15
:104F30009B78DD067FF506AC294C207800F067FDF4
:104F4000022810D0207800F062FD03280BD074797D
:104F5000452024B100F0D0FD0024FFF7F3BB00F0A2
:104F600013FEFFF7EFBB7479A92024B100F0C4FD54
:104F70000024FFF7E7BB00F007FEFFF7E3BB174B8A
:104F80009B78D8067FF5DEAB164B1B7813F00A052D
:104F90007FF4D8AB7479352024B100F0ADFD2C46F8
:104FA000FFF7D0BB00F0F0FDFFF7CCBB0B4B9B78BD
:104FB000D9067FF5C7AB0B4B1B7813F00A057FF4BE
:104FC000C1AB7479292024B100F096FD2C46FFF77F
:104FD000B9BB00F0D9FDFFF7B5BB00BFAC4900205D
:104FE000161F00201A1F00207579DDB101F042FC68
:104FF00010F0220F3FF4A6AB0122C04BC04C1A7038
:1050000001F038FC00F02200207001F041FC462045
:1050100000F0D8FB01F0F2FC207801F031FC002414
:10502000FFF790BBB54B1A78002A3FF48BAB4620B4
:105030001D702C4600F0DCFB01F0E0FCFFF782BBAA
:10504000737913B90024FFF77DBBAE4D0024AB7814
:1050500083F01002C2F3001262F30413AB702868ED
:1050600001F06DFDF0238DF80830AB7804AAC3F38E
:1050700000138DF8093005230092194602AA0F206B
:10508000ADF80A408DF80C4004948DF8144002F0FD
:10509000C1FEFFF757BB73799B4A23B101211C4620
:1050A0001170FFF74FBB1370FFF74CBB7579002DE4
:1050B0003FF448AB01F028FD2C4608F0C1F9FFF79A
:1050C00041BBFDF7B9F804460028BBD17379002B2A
:1050D000B8D0FEF797FFFFF735BB2C60FFF732BB68
:1050E0007379002B3FF42EAB06F032F9D6287FF609
:1050F00029ABFFF795FAFFF725BB7379002B3FF437
:1051000021AB06F025F95F283FF61CABF1E7757976
:10511000002D3FF417AB05F0C5FF00F0E9FA30B100
:105120004FF0804320229A614FF480729A6106F01A
:1051300089F895287FF606AB06F084F800F11E0387
:105140009BB2962B28BF9623DBB28DF810308DF8DA
:1051500011308DF81230FA22022336200499FFF71D
:105160002DFA2C46FFF7EEBA7579002D3FF4EAAA26
:1051700006F068F81E283FF6E5AA00240023204622
:105180001A461946013404F019F9442CF6D106F0F8
:1051900059F800F11E039BB2962B28BF9623DBB271
:1051A0008DF810308DF811308DF81230FA2202236C
:1051B00042200499FFF702FA2C46FFF7C3BA73792D
:1051C000002B3FF43FAF00210E20FFF79DFAFF2395
:1051D0004E4C8DF810308DF811308DF81230FA22C7
:1051E00003230F200499FFF7E9F9207800F00FFC62
:1051F000022808D1002000F0C3FB002000F0E1FFEE
:105200000024FFF79FBA207800F001FC0328F7D1B3
:10521000F0E77379002B3FF415AF00210F20FFF763
:1052200073FAFF23394C8DF810308DF811308DF85A
:105230001230FA2203230E200499FFF7BFF92078D9
:1052400000F0E5FB02280AD0207800F0E0FB0328FC
:1052500005D0022000F094FB002000F0B2FF0024F3
:10526000FFF770BA7379002B3FF46CAA05F080FF4A
:105270001D287FF467AA1F2005F076FF0024FFF7A2
:1052800061BA224D287800F0C2FB022811D1204BD0
:105290001B78DA067FF556AAFCF7CEFF00287FF4CC
:1052A00051AA7579E3205DB100F08CFA2C46FFF726
:1052B00049BA287800F0ABFB03287FF443AAE6E75D
:1052C00000F096FAFFF73EBA287800F0A0FB03281A
:1052D0007FF438AAFFF7DCBA00F08AFAFFF732BA97
:1052E000084B0C4A1B78002413F00E0318BF737987
:1052F00003F001031370FFF725BA00BFF81E00206A
:10530000F91E0020AC490020DC1E0020161F0020E2
:10531000C849002034400020F8B500252E461D4C19
:10532000237873B1606807F0F2FFA368984212D344
:1053300008F038F8E36860604BB96369267066600E
:10534000C3B90135632D04F11804E9D1F8BD013B5F
:10535000E360002BF1D0E368207C13F0010311D04F
:10536000FF28677CA17CE37C07D11A46384604F00D
:105370005DF9E6E7E8B29847E3E70A46394604F004
:105380001DF8DEE7FF281A4602D119461846EEE757
:105390001946F4E7604000207FB500F0A9F9A0B1FC
:1053A000042200210DF10900FBF7E6F9002204AB0D
:1053B00004928DF814200093DD2205238DF8082037
:1053C00019460F2002AA02F025FD00220B4B1A708D
:1053D00001F0E4FB03F0BAFF094801F0A6FBFFF778
:1053E00054F940B107F0DEFFFDF71CF807B05DF897
:1053F00004EBFEF773BB07B05DF804FB970C0020CD
:10540000C849002073B505F01DFF00F11E04A4B2C9
:10541000962C28BF9624674BE4B21E78A6B10024D0
:1054200096238DF804408DF806308DF805400198DC
:1054300003F0DEF9C0F30742C0F30721C0B204F065
:10544000F5F8204602B070BD5B4D286840B107F00A
:105450005EFF40F6B833984202D9FFF79DFF2E60F9
:1054600007F038FD810705D5002321461A460220A2
:1054700003F0A4FF514D287800F0C9FA02280ED09D
:10548000287800F0C4FA032809D04D4B1B78DA06BF
:1054900005D5002321461A46012003F08FFF494D10
:1054A000FEF7B4FF2B7863B9474E306807F02FFF43
:1054B000B0F5FA6F16D901232B7007F073FF306037
:1054C00010E0424B1B786BB9FCF7B6FE38B9FEF71B
:1054D000F1FFFFF717F807F065FF3B4B18602B78DB
:1054E000002BE1D0FFF718FF394B9B78DB0609D57D
:1054F0001625002328461A462146013503F05EFF93
:10550000232DF6D1334B186830B107F000FFB0F50A
:10551000FA6F2CBF002001202F4E304D337880F0E1
:105520000100FF2B2DD130702B78FF2B32D0327839
:105530009A422FD02A4B186807F0E9FEB0F5166F93
:105540002CBF0025012507F02DFF4FF44873B0FB59
:10555000F3F2367802FB1300F6B975B1B0F5C87FE7
:105560000BD2334622463146042003F027FF334650
:1055700022463146402003F021FFFCF793FE012034
:1055800060E78342D0D02B70307007F00BFF144BD4
:105590001860C9E70025D6E715B1B0F5C87FECD291
:1055A000002321461A46042003F008FF0023214669
:1055B0001A46DFE7FA1E0020D41E0020161F002026
:1055C000C8490020970C0020C81E0020DD1E0020C6
:1055D000AC490020E81E0020990C0020980C002007
:1055E000EC1E002038B51C460B780D46CC2B41D064
:1055F00006D8AA2B15D0BB2B33D0552B09D038BDDC
:10560000F02B3ED0F12B43D0DD2BF8D1FFF7C4FEB9
:1056100004E0002289786878FDF786F8002323707B
:10562000EDE71E4B1B7813F00E0F0DD004224FF444
:1056300080614FF080400AF0A7FD04224FF4007112
:105640004FF080400AF0A0FD002323706B78144ACD
:10565000003B18BF012301201370BDE83840FDF75F
:1056600021BB4FF400124FF080439A614FF08072DB
:105670009A61D3E720224FF080439A614FF4807201
:10568000F6E7064B49789A7861F304129A70C5E7F9
:1056900007F088FE034B1860C0E700BFAC4900204C
:1056A000F01E0020E81E002008B5104B00209A785C
:1056B000197802F00702C1F34201FCF717FF41F22B
:1056C000883009F098FA00F013F805F0BBFD4FF0B0
:1056D000804328B120229A614FF480729A6108BDFC
:1056E0004FF400129A614FF08072F7E7AC49002046
:1056F00010B5054C002220464FF400710AF044FD1D
:105700002069C0F3402010BD0004004003280DD8DC
:105710000B290BD8082A09D86C2301EBC10103FB24
:105720000011034B0A4433F8120070470120704700
:105730007C120108032808D839B9054B82F0010210
:1057400002EB400033F8100070470120704700BFA3
:105750006C120108A0F58073B3F5F85F10B526D27E
:1057600010F4805F00F4807300F4007400F4806132
:1057700000F400620DD0002B0CBF002010200CB1F3
:1057800040F0200009B140F040000AB140F0800034
:1057900010BD181E18BF01200CB140F0020009B165
:1057A00040F00400002AF3D040F00800F0E70020A9
:1057B000EEE710B50C46FFF7CDFF2346BDE81040DD
:1057C00018470000A0F1E003072B10B5044600D9EC
:1057D00040B920460449FFF7ECFFE0B2BDE81040B5
:1057E00000F08AB90149F6E7495C000871600008D9
:1057F00010B50446C0B200F0C7F9A4F1E003072BCE
:1058000000D92CB903492046BDE81040FFF7D1BFAD
:105810000149F8E75B5C00088360000801207047DD
:105820000120704708B5FFF7FBFF08BD0120704756
:10583000012070477047704708B5FFF7FCFF08BDAF
:10584000012070477047704713B502AB03E90300AE
:105850000F4B1B78B3B99DF8053073B16AB100F0F6
:1058600063FD04460146009800F01CFD20460099A7
:1058700002B0BDE8104001F0DBBB009800F034FD41
:105880000446F3E7009800F04FFD0099F0E700BFF1
:10589000151F0020034610B400885C880A4640EAC1
:1058A0000440998810BCFFF7CFBF10B50446012112
:1058B000FFF7F0FF2146FFF7B1FF30B1012120468D
:1058C000FFF7E8FF2146FFF7ADFF00F0010010BD34
:1058D00038B500210446FFF7DDFF05462146FFF7F6
:1058E000A9FF21462846FFF7A7FF38BD38B501219B
:1058F0000446FFF7CFFF21460546FFF797FFB8B3F1
:1059000021462846FEF716FF90B32146284607F0A9
:1059100067F868B32146284606F070FF40B3214679
:10592000284606F091FA18B32146284606F066FA92
:10593000F0B12146284602F047FEC8B1214628466C
:1059400002F08CFEA0B12146284606F0A5FF78B1F2
:105950002146284601F0B4FC50B12146284601F00A
:10596000BFFC28B121462846BDE8384001F0D4BC30
:10597000002038BD012303FA00F0C0B200F0F3BBF1
:1059800010B504460120A040C0B201F0CCF820467A
:10599000BDE81040FFF7EEBF0120704708B5FFF7E4
:1059A000FBFF08BD10B5044600F08CFB2046FFF756
:1059B00047FF2046FFF7F2FF10BD08B50120FFF7B3
:1059C000F1FFBDE8084007F03BBD08B50020FFF738
:1059D000E9FFBDE8084007F059BD08B5FFF732FF01
:1059E000FEF771F905F046FA00F033F8BDE808401B
:1059F000012005F00FBB08B500F030F8002005F0DD
:105A000009FBFFF720FFBDE80840FEF71EB903467B
:105A100000091CBF034604209A081EBF134602302B
:105A2000C0B25B081CBF0130C0B270470120704794
:105A3000704738B50546FFF7F9FF044610B1284610
:105A4000FFF7F6FF204638BD704708B5FFF7F1FFB6
:105A500008BD08B50020FFF7F8FF08BD08B507F03E
:105A600023FAFFF7F2FF08BD10B507F01DFA074B48
:105A700004461A78824207D0187007F093FC044B52
:105A800018602046FFF7E1FF10BD00BF141F002083
:105A9000101F00201FB56C4684E803009DF80530F8
:105AA0000BB100F013FF0023ADF80E3094E80300B3
:105AB000ADF80C10C9B2029002AC29B994E8030009
:105AC00000F05EFE04B010BD2046FFF7EEFE002899
:105AD000F4D1F7E70379012B02D1008800F044BC30
